:020000040800F2
:1000000000000220092600082522000827220008F7
:10001000292200082B2200082D22000800000000E1
:100020000000000000000000000000002F22000877
:1000300031220008000000003322000835220008A9
:100040005926000859260008592600085926000894
:100050005926000859260008592600085926000884
:100060005926000859260008592600085926000874
:100070005926000859260008592600085926000864
:1000800059260008592600085926000800000000DB
:1000900000000000000000000000000059260008D9
:1000A0005926000859260008592600085926000834
:1000B0005926000859260008592600085926000824
:1000C0005926000859260008592600085926000814
:1000D000592600085926000859260008000000008B
:1000E000592600085926000859260008000000007B
:1000F0000000000000000000000000005926000879
:10010000000000005926000859260008592600085A
:1001100000000000000000000000000000000000DF
:1001200059260008592600085926000859260008B3
:100130005926000800000000000000000000000038
:100140000000000000000000000000005926000828
:100150005926000859260008592600085926000883
:100160005926000859260008000000000000000081
:10017000000000000000000000000000000000007F
:1001800000000000592600080000000000000000E8
:08019000592600085926000859
:1001980010B5054C237833B9044B13B10448AFF3B9
:1001A80000800123237010BD4000002000000000E3
:1001B800A426000808B5034B1BB103490348AFF355
:1001C800008008BD0000000044000020A4260008AC
:1001D80053B94AB9002908BF00281CBF4FF0FF31A6
:1001E8004FF0FF3000F06AB9ADF1080C6DE904CEAC
:1001F80000F006F8DDF804E0DDE9022304B07047FA
:100208002DE9F047089D0C46002B4ED194468C45AD
:100218008646B2FA82F262D94AB1C2F1200391400D
:1002280020FA03F30CFA02FC194300FA02FE4FEA23
:100238001C471FFA8CF6B1FBF7F44FEA1E4307FB85
:10024800141143EA014304FB06F199420AD91CEB55
:10025800030304F1FF3080F01281994240F20F81CC
:10026800023C6344591A1FFA8EF3B1FBF7F007FBFF
:10027800101143EA014300FB06F69E420AD91CEB23
:10028800030300F1FF3180F0FC809E4240F2F980C8
:10029800634402389B1B40EA044000211DB1D3404F
:1002A8000022C5E90032BDE8F0878B4205D90DB1BF
:1002B800C5E9000100210846F5E7B3FA83F10029F2
:1002C80046D1A34202D39042C0F0F080861A64EB74
:1002D80003030120002DE6D0C5E90063E3E7002A07
:1002E80040F09080A1EB0C044FEA1C481FFA8CF7F1
:1002F8000121B4FBF8F64FEA1E4308FB164443EA13
:10030800044307FB06F0984208D91CEB030306F1E7
:10031800FF3402D2984200F2CD8026461C1A1FFAFA
:100328008EF3B4FBF8F008FB104443EA044300FBE7
:1003380007F79F4208D91CEB030300F1FF3402D2F0
:100348009F4200F2B0802046DB1B40EA0640A5E74A
:10035800C1F120068B4022FA06F71F4320FA06FC5B
:1003680004FA01F343EA0C03F44000FA01F8380CEC
:100378004FEA1349B4FBF0FE1FFA87FC00FB1E444A
:1003880049EA04440EFB0CF9A14502FA01F20AD924
:100398003C190EF1FF3A80F08480A14540F281803B
:1003A800AEF1020E3C44A4EB09041FFA83F9B4FB36
:1003B800F0F300FB134449EA044403FB0CFCA44596
:1003C80007D93C1903F1FF3067D2A44565D9023B30
:1003D8003C4443EA0E40A0FB0293A4EB0C049C426D
:1003E800CE469C4651D34ED055B1B8EB0E0364EBC4
:1003F8000C0404FA06F6CB401E43CC40C5E9006461
:10040800002150E7C2F1200320FA03F10CFA02FCA4
:1004180024FA03F394400C434FEA1C4800FA02FE06
:100428001FFA8CF7B3FBF8F008FB1031230C43EAF2
:10043800014300FB07F1994208D91CEB030300F1C3
:10044800FF362CD299422AD9023863445B1AA4B2E7
:10045800B3FBF8F108FB113344EA034401FB07F34B
:10046800A34208D91CEB040401F1FF3613D2A342BE
:1004780011D902396444E41A41EA004139E70446D3
:10048800F0E6084606E7C845AED2B9EB020E63EBC4
:10049800070C0138A8E73146EDE7034699E73046EF
:1004A800D4E7D6467FE7634402384DE7064623463D
:1004B80008460FE7023E634430E700BF704700BFBD
:1004C8002DE9F04383B080460F4691461A46012332
:1004D80000931F234946384601F01CFBA9F1130677
:1004E80000240CE058F824203146284601F06AFA26
:1004F8000134013507F11503AB42F3D8013609F190
:100508001503B34202D9A7F11305F3E703B0BDE819
:10051800F0832DE9F84380460F469146164600249D
:100528000CE058F824203146284601F04BFA0134F3
:10053800013507F12803AB42F3D8013609F1280346
:10054800B34201D93D46F4E7BDE8F88370B582B0FF
:10055800032001F029F9002001F01EFA4FF4FA7087
:1005680000F030F9E62300934FF49B731E220A2112
:100578004FF6E07001F0A6FA02230193254B009391
:1005880000234FF6FF720A21084601F01FFC0A26D5
:1005980000240CE0204B53F824203146284601F073
:1005A80011FA01340135B5F5967FF3D30136132ED0
:1005B80002D84FF48C75F6E728234F223B211748C1
:1005C800FFF77EFF28234F229F211548FFF778FF6A
:1005D80028234F2240F203111248FFF771FF282306
:1005E800B3223B211048FFF76BFF2823B3229F213A
:1005F8000E48FFF765FF2823B32240F203110C4889
:10060800FFF75EFF012204210A4800F04CFA02B00D
:1006180070BD00BF3CDC0308BC2600081C82030830
:10062800DC620308DC490308DC300308DC17030834
:10063800DCFE02080000024010B582B0002001F084
:10064800ABF94FF4FA7000F0BDF8E62300934FF4CD
:100658009B731E220A214FF6E07001F033FA022440
:100668000194174B009300234FF6FF7228211420A2
:1006780001F0ACFB0194134B009300234FF6FF727B
:100688003C21142001F0A2FB01940F4B009300239E
:100698004FF6FF725021142001F098FB01940B4B88
:1006A800009300234FF6FF726421142001F08EFBA3
:1006B800C82200210648FFF72CFF02B010BD00BF7A
:1006C80048DC030854DC030874DC030898DC0308DE
:1006D800DCE5020838B5002514E005EB85039A012E
:1006E800224453000D490133CB5C11F812202946EE
:1006F800204601F0BBFB0134A4B2B4F5A07FECD3D3
:100708000135ADB2B5F58C7F01D20024F5E7C822DA
:1007180000210348FFF7FDFE38BD00BFDC290008B3
:10072800DCE5020810B504460E4B1A784FF47A73CC
:10073800B3FBF2F30C4A1068B0FBF3F000F0ACF82E
:1007480068B90F2C01D901200AE0002221464FF098
:10075800FF3000F091F8034B5C60002000E00120BE
:1007680010BD00BF000000201000002008B50B4B92
:100778001A6842F400721A601A6842F480621A60B9
:100788001A6842F480721A60032000F063F80020AF
:10079800FFF7C8FF01F0D0FC002008BD003C024074
:1007A800034A1168034B1B780B441360704700BF62
:1007B8005C00002000000020014B1868704700BF53
:1007C8005C00002038B50446FFF7F6FF0546B4F193
:1007D800FF3F02D0044B1B781C44FFF7EDFF401B82
:1007E800A042FAD338BD00BF00000020002808DB73
:1007F8000901C9B200F1604000F5614080F80013BA
:10080800704700F00F000901C9B2014B1954704735
:1008180014ED00E000B500F00700C0F1070CBCF1D2
:10082800040F28BF4FF0040C031D062B0FD9C31E5D
:100838004FF0FF3E0EFA0CF021EA000199400EFA43
:1008480003FE22EA0E0241EA02005DF804FB0023DF
:10085800EEE70000074AD36823F4E0631B041B0C8F
:10086800000200F4E060034343F0BF6343F4003345
:10087800D360704700ED00E010B50446054BD8681A
:10088800C0F30220FFF7C6FF01462046FFF7AEFF80
:1008980010BD00BF00ED00E00138B0F1807F0BD241
:1008A8004FF0E0235861054AF02182F82310002018
:1008B800986107221A6170470120704700ED00E037
:1008C800042806D04FF0E022136923F004031361D3
:1008D80070474FF0E022136943F004031361704737
:1008E800704708B5FFF7FCFF08BD000000230F2B79
:1008F80000F2C88070B582B03AE0042200E000221D
:10090800AA4032430234604D45F824205F4A1468F7
:100918006FEA0C0224EA0C054E6816F4803F01D0F9
:100928004CEA0405594C2560646802EA04054E68DF
:1009380016F4003F01D04CEA0405544C6560A468E5
:1009480002EA04054E6816F4801F01D04CEA04053B
:100958004E4CA560E46822404D6815F4001F01D094
:100968004CEA0402494CE26001330F2B00F2888004
:1009780001229A400C6804EA020C32EA0404F3D11A
:100988004C68022C01D0122C12D1DD08083550F821
:10099800254003F00706B6004FF00F0E0EFA06FECC
:1009A80024EA0E0E0C69B44044EA0E0440F82540CF
:1009B80006684FEA430E032404FA0EF4E54326EAD8
:1009C80004064C6804F0030404FA0EF4344304608B
:1009D8004C68661E012E03D9112C01D0122C0FD1A0
:1009E80086682E40CC6804FA0EF434438460446868
:1009F80024EA02044A68C2F300129A402243426081
:100A0800C26815408A6802FA0EF22A43C2604A6830
:100A180012F0805FA8D0002201921D4A546C44F461
:100A280080445464526C02F480420192019A9C08FA
:100A3800A51C154A52F8256003F00305AD000F22E6
:100A4800AA4026EA0206134A90423FF458AF02F53C
:100A5800806290420ED002F5806290420CD002F57E
:100A6800806290420AD002F5806290423FF445AF1E
:100A7800072245E7012243E7022241E703223FE735
:100A880002B070BD704700BF00380140003C014013
:100A980000380240000002400369194201D00120D9
:100AA8007047002070470AB181617047090481616D
:100AB80070470000002800F0BA8170B582B0044683
:100AC800036813F0010F3BD09F4B9B6803F00C03A6
:100AD800042B2CD09C4B9B6803F00C03082B21D0D3
:100AE8006368B3F5803F4FD0B3F5A02F52D0964B33
:100AF8001A6822F480321A601A6822F480221A6076
:100B08006368002B50D0FFF757FE05468E4B1B68D5
:100B180013F4003F14D1FFF74FFE401B6428F5D9AA
:100B280003208BE1884B5B6813F4800FD8D0864B89
:100B38001B6813F4003F03D06368002B00F0798131
:100B4800236813F0020F54D07F4B9B6813F00C0FEF
:100B58003ED07D4B9B6803F00C03082B33D0E36831
:100B6800002B68D0794B01221A60FFF725FE054655
:100B7800754B1B6813F0020F54D1FFF71DFE401B85
:100B88000228F5D9032059E16F4A136843F48033EA
:100B98001360B5E76C4B1A6842F480221A601A6831
:100BA80042F480321A60ABE7FFF706FE0546664B53
:100BB8001B6813F4003FC3D0FFF7FEFD401B6428F9
:100BC800F5D903203AE1604B5B6813F4800FC6D176
:100BD8005D4B1B6813F0020F03D0E368012B40F054
:100BE8002A81594A136823F0F803216943EAC103AB
:100BF8001360236813F0080F42D063696BB3534B3B
:100C08000122C3F8802EFFF7D7FD05464E4B5B6FD8
:100C180013F0020F34D1FFF7CFFD401B0228F5D99E
:100C280003200BE1484A136823F0F803216943EADB
:100C3800C1031360DDE7454B00221A60FFF7BCFDD6
:100C48000546414B1B6813F0020FD2D0FFF7B4FDE5
:100C5800401B0228F5D90320F0E03C4B0022C3F8E2
:100C6800802EFFF7A9FD0546374B5B6F13F0020F87
:100C780006D0FFF7A1FD401B0228F5D90320DDE0CF
:100C8800236813F0040F77D02F4B1B6C13F0805F91
:100C980033D1002301932C4B1A6C42F080521A6412
:100CA8001B6C03F080530193019B0125284B1B68A3
:100CB80013F4807F23D0A368012B34D0052B38D0C0
:100CC800214B1A6F22F001021A671A6F22F00402F0
:100CD8001A67A368002B3DD0FFF76EFD06461A4B36
:100CE8001B6F13F0020F46D1FFF766FD801B41F220
:100CF80088339842F3D90320A0E00025D6E7144AA8
:100D0800136843F480731360FFF756FD0646104BD3
:100D18001B6813F4807FCED1FFF74EFD801B02289D
:100D2800F5D903208AE0084A136F43F001031367DB
:100D3800CFE7054B1A6F42F004021A671A6F42F0A8
:100D480001021A67C5E700BF0038024000004742A9
:100D580000700040FFF730FD06463A4B1B6F13F05A
:100D6800020F08D0FFF728FD801B41F28833984214
:100D7800F3D9032062E0E5B9A369002B5DD0314ABD
:100D8800926802F00C02082A5AD0022B17D02E4B78
:100D980000221A66FFF710FD04462A4B1B6813F061
:100DA800007F42D0FFF708FD001B0228F5D9032079
:100DB80044E0244A136C23F080531364DCE7224B8D
:100DC80000221A66FFF7F8FC05461E4B1B6813F055
:100DD800007F06D0FFF7F0FC401B0228F5D903205E
:100DE8002CE0E369226A1343626A43EA8213A26A27
:100DF8005208013A43EA0243E26A43EA0263114AAB
:100E08005360114B01221A66FFF7D6FC04460D4BBE
:100E18001B6813F0007F06D1FFF7CEFC001B0228E9
:100E2800F5D903200AE0002008E0002006E00120B0
:100E38007047012002E0012000E0002002B070BDF0
:100E48000120FBE7003802400000474208B5334B59
:100E58009B6803F00C03042B5BD0082B5BD12F4B52
:100E68005A6802F03F025B6813F4800F2CD02B4BBA
:100E78005868C0F388104FEA401CBCEB000C6EEBBE
:100E88000E0E4FEA8E1343EA9C634FEA8C11B1EBC6
:100E98000C0163EB0E03DB0043EA5173C90011EB4D
:100EA800000C43F10003590200234FEA4C2041EAA9
:100EB800DC51FFF78DF9194B5B68C3F3014301332C
:100EC8005B00B0FBF3F027E0144B5868C0F38810C0
:100ED8004FEA401CBCEB000C6EEB0E0E4FEA8E1373
:100EE80043EA9C634FEA8C11B1EB0C0163EB0E03F0
:100EF800DB0043EA5173C90011EB000C43F1000316
:100F0800990200234FEA8C2041EA9C51FFF760F9CF
:100F1800D1E7034800E0034808BD00BF003802409D
:100F280000127A000024F400002800F09A8070B5BE
:100F38000D4604464F4B1B6803F00F038B4208D243
:100F4800CBB24C4A1370136803F00F038B4240F086
:100F58008A80236813F0020F17D013F0040F04D00F
:100F6800454A936843F4E0539360236813F0080FED
:100F780004D0414A936843F4604393603E4A9368BF
:100F880023F0F003A1680B439360236813F0010F6B
:100F980032D06368012B21D09A1E012A25D9364AFE
:100FA800126812F0020F60D033498A6822F00302F7
:100FB80013438B60FFF700FC06462F4B9B6803F03A
:100FC8000C036268B3EB820F16D0FFF7F5FB801BAA
:100FD80041F288339842F0D9032041E0264A12684A
:100FE80012F4003FE0D101203AE0234A126812F0DF
:100FF800007FD9D1012033E01E4B1B6803F00F039B
:10100800AB4207D9EAB21B4B1A701B6803F00F03F7
:10101800AB422CD1236813F0040F06D0164A93680C
:1010280023F4E053E1680B439360236813F0080F3F
:1010380007D0114A936823F46043216943EAC10346
:101048009360FFF703FF0C4B9B68C3F303130B4A32
:10105800D35CD8400A4B18600020FFF763FB0020E0
:1010680070BD012070470120FAE70120F8E7012050
:10107800F6E700BF003C02400038024024DC0308C9
:1010880010000020014B1868704700BF10000020B6
:101098002DE9F0410646884617461D463BE02DB12E
:1010A800FFF78AFB069BC01AA84234D332685368FC
:1010B80023F0E00353607368B3F5827F0BD0B36A03
:1010C800B3F5005F14D0012386F85130002386F869
:1010D8005030032027E0B368B3F5004F02D0B3F5D2
:1010E800806FECD13268136823F040031360E6E7A1
:1010F8003268136823F400531B041B0C1360326816
:10110800136843F400531360DDE70124BC4209D09F
:10111800B5F1FF3FC3D13468A46838EA0404F4D0B9
:101128000024F3E70020BDE8F08110B582B0044642
:101138000B46009200228021FFF7AAFF08B902B0EF
:1011480010BD636D43F0200363650320F7E70028B3
:101158003BD010B504460023836290F85130002B31
:101168002ED0022384F851302268136823F04003FC
:1011780013606368A2681343E26813432269134348
:1011880062691343A26902F400721343E2691343CC
:10119800226A1343A16A22680B431360638B03F02E
:1011A8000403616A22680B4353602268D36923F4FD
:1011B8000063D36100206065012384F8513010BDBD
:1011C80080F8503001F002F8CBE7012070472DE994
:1011D800F04385B01D4690F85030012B00F0C980CF
:1011E80004460E469146012380F85030FFF7E4FA92
:1011F800804694F85170FFB2012F40F0AF80002E66
:1012080000F0AD80B9F1000F00F0A980032384F845
:101218005130002363652663A4F83490A4F836900F
:10122800A363A387E38763642364A368B3F5004FCC
:101238001CD023681A6812F0400F03D11A6842F0D4
:1012480040021A60E368B3F5006F15D063681BB1FC
:10125800E38E9BB2012B41D1236816F8012B1A7338
:10126800E38E9BB2013B9BB2E38637E022681368AA
:1012780043F480431360DCE763681BB1E38E9BB2E1
:10128800012B0DD1236836F8022BDA60E38E9BB26E
:10129800013B9BB2E38603E0D5B1B5F1FF3F11D125
:1012A800E38E9BB2002B37D023689A6812F0020FA6
:1012B800F2D036F8022BDA60E38E9BB2013B9BB288
:1012C800E386EDE7FFF778FAA0EB0800A842E7D33A
:1012D800032744E0F5B1B5F1FF3F15D1E28E92B294
:1012E800D2B123689A6812F0020FF3D016F8012BD6
:1012F8001A73B4F836C01FFA8CFC0CF1FF3C1FFAC5
:101308008CFCA4F836C0E9E7FFF756FAA0EB080012
:10131800A842E3D3032722E0CDF800802B46012220
:1013280002212046FFF7B4FE08B1032717E0424622
:1013380029462046FFF7F9FE034660B9A26832B98C
:1013480003922268D168039192680392039A626DAE
:101358002AB91F4603E02023636500E00227012322
:1013680084F85130002384F85030384605B0BDE881
:10137800F0830227F9E7000008B50E480E4B03601A
:101388004FF48273436000238360C3600361436149
:101398004FF400728261C3610362436283620A236D
:1013A800C362FFF7D4FE00B908BDA821034800F0C6
:1013B800D3FDF9E76000002000300140BCDC0308E1
:1013C80010B5064C002202212046FFF76CFB0022D4
:1013D80004212046FFF767FB10BD00BF0000024054
:1013E80010B5064C012202212046FFF75CFB0022C3
:1013F80004212046FFF757FB10BD00BF0000024044
:1014080000B583B08DF8070001231A460DF10701D6
:101418000248FFF7DCFE03B05DF804FB6000002023
:1014280010B50446FFF7CCFF2046FFF7E9FF10BDD3
:1014380010B50446FFF7D4FF2046FFF7E1FF10BDC3
:101448002DE9F0418846060AC4B2444D0022042121
:101458002846FFF728FB002202212846FFF723FB36
:101468002C20FFF7CDFF012202212846FFF71BFBA6
:101478003046FFF7C5FF2046FFF7C2FF08F1FF38E7
:10148800C8F38F17A6424ED11CE010252046FFF75F
:10149800B7FF2046FFF7B4FF2046FFF7B1FF20460D
:1014A800FFF7AEFF2046FFF7ABFF2046FFF7A8FF88
:1014B8002046FFF7A5FF2046FFF7A2FF6B1E13F09B
:1014C800FF05E3D13B46013FBFB2002BDDD108F059
:1014D8003F0206E02046FFF793FF2046FFF790FF04
:1014E8002A46531EDDB2002AF4D12FE010253046DB
:1014F800FFF786FF2046FFF783FF3046FFF780FFA0
:101508002046FFF77DFF3046FFF77AFF2046FFF7BA
:1015180077FF3046FFF774FF2046FFF771FF6B1E19
:1015280013F0FF05E3D13B46013FBFB2002BDDD1ED
:1015380008F03F0206E03046FFF762FF2046FFF75B
:101548005FFF2A46531EDDB2002AF4D1012204218E
:101558000248FFF7A8FABDE8F08100BF000002408A
:1015680010B50F4C002201212046FFF79CFA3220CB
:10157800FFF728F9012211462046FFF794FA0022C6
:1015880004212046FFF78FFA3220FFF71BF90120CC
:10159800FFF746FF012204212046FFF784FA10BD19
:1015A8000000024008B5FFF7E7FEFFF7D9FF01206A
:1015B800FFF736FFCB20FFF733FF3920FFF738FF5F
:1015C8002C20FFF735FF0020FFF732FF3420FFF70C
:1015D8002FFF0220FFF72CFFCF20FFF721FF00206D
:1015E800FFF726FFC120FFF723FF3020FFF720FF7A
:1015F800E820FFF715FF8520FFF71AFF0020FFF707
:1016080017FF7820FFF714FFEA20FFF709FF0020F3
:10161800FFF70EFF0020FFF70BFFED20FFF700FF9D
:101628006420FFF705FF0320FFF702FF1220FFF7F2
:10163800FFFE8120FFF7FCFEF720FFF7F1FE2020D8
:10164800FFF7F6FEC020FFF7EBFE1020FFF7F0FED5
:10165800C120FFF7E5FE1020FFF7EAFEC520FFF7DF
:10166800DFFE3E20FFF7E4FE2820FFF7E1FEC7205B
:10167800FFF7D6FE8620FFF7DBFE3620FFF7D0FE09
:101688004820FFF7D5FE3A20FFF7CAFE5520FFF79E
:10169800CFFEB120FFF7C4FE0020FFF7C9FE1820D7
:1016A800FFF7C6FEB620FFF7BBFE0820FFF7C0FE17
:1016B8008220FFF7BDFE2720FFF7BAFEF220FFF7D2
:1016C800AFFE0020FFF7B4FE2620FFF7A9FE012099
:1016D800FFF7AEFEE020FFF7A3FE0F20FFF7A8FEFE
:1016E8003120FFF7A5FE2B20FFF7A2FE0C20FFF705
:1016F8009FFE0E20FFF79CFE0820FFF799FE4E2064
:10170800FFF796FEF120FFF793FE3720FFF790FED4
:101718000720FFF78DFE1020FFF78AFE0320FFF752
:1017280087FE0E20FFF784FE0920FFF781FE0020C8
:10173800FFF77EFEE120FFF773FE0020FFF778FE3B
:101748000E20FFF775FE1420FFF772FE0320FFF747
:101758006FFE1120FFF76CFE0720FFF769FE3120AE
:10176800FFF766FEC120FFF763FE4820FFF760FE23
:101778000820FFF75DFE0F20FFF75AFE0C20FFF749
:1017880057FE3120FFF754FE3620FFF751FE0F2099
:10179800FFF74EFE1120FFF743FE2920FFF740FE1A
:1017A8002C20FFF745FE08BD10B504463620FFF78C
:1017B80037FE032C0CD8DFE804F0020C1620482072
:1017C800FFF736FE124BF0221A604FF4A0725A60EF
:1017D80010BD2820FFF72CFE0D4B4FF4A0721A60A5
:1017E800F0225A60F4E78820FFF722FE084BF02227
:1017F8001A604FF4A0725A60EAE7E820FFF718FE73
:10180800034B4FF4A0721A60F0225A60E0E700BF61
:101818000800002070B506460C46114D0022042130
:101828002846FFF740F9002202212846FFF73BF936
:101838003046FFF7E5FD012202212846FFF733F97C
:10184800200EFFF7DDFDC4F30740FFF7D9FDC4F311
:101858000720FFF7D5FDE0B2FFF7D2FD70BD00BF4E
:101868000000024038B50D461C4642EA00412A20D5
:10187800FFF7D0FF44EA05412B20FFF7CBFF38BD27
:101888002DE9F04115461E469DF818709DF81C304C
:10189800012B03D0022B3DD0BDE8F08101F10803F4
:1018A800421DFFF7DFFF3A4C002202212046FFF7D6
:1018B800FAF82C20FFF7A4FD012202212046FFF7A9
:1018C800F2F84FF0000820E0C6F30720FFF798FD74
:1018D800F0B2FFF795FD0134072C14DCA7F12002C4
:1018E8002C4B03EBC20313F80830C4F10702134171
:1018F80013F0010FE8D0C5F30720FFF781FDE8B228
:10190800FFF77EFDE7E708F10108B8F1070FC3DC30
:101918000224E1E701F11003C21DFFF7A3FF1C4CED
:10192800002202212046FFF7BEF82C20FFF768FDB1
:10193800012202212046FFF7B6F84FF0000821E007
:10194800C6F30720FFF75CFDF0B2FFF759FD01343D
:10195800072C15DCA7F120030E4901EB03114144C4
:1019680091F8D832C4F10702134113F0010FE7D000
:10197800C5F30720FFF744FDE8B2FFF741FDE6E7AE
:1019880008F10108B8F10F0F86DC0024E0E700BF7A
:10199800000002405CD3030838B50546084C63686C
:1019A8002268013B013A00210846FFF75BFF2368E4
:1019B800616803FB01F1A8B2FFF742FD38BD00BF23
:1019C80008000020002825DB38B51446002906DB6E
:1019D800114B1A68904202D25B68994200D338BD15
:1019E800013B013AFFF73EFF0C4D00220221284639
:1019F800FFF759F82C20FFF703FD012202212846A2
:101A0800FFF751F8C4F30720FFF7FAFCE0B2FFF73D
:101A1800F7FCE4E7704700BF080000200000024020
:101A28002DE9F04F83B082460C46164698460C992D
:101A3800A1EB0209B9F1000FB8BFC9F100091B1BDE
:101A480083EAE37BABEBE37BD94506DD22B20FFAF1
:101A580088F08846014634461646444505D922B2E0
:101A680030B20E46014644469046A8EB04028F1B4E
:101A7800002FB8BF7F4202EBD2756D108E421AD389
:101A88004FF0FF330093019207E05246314620465B
:101A9800FFF798FFED1B0AD4013444450FD8D94508
:101AA800F3DD524621463046FFF78CFFF2E7009BF4
:101AB8001E44019DF0E7012300930192EDE703B076
:101AC800BDE8F08F2DE9F04182B004460D46174677
:101AD8001E46DDF820800092FFF7A2FFCDF80080B7
:101AE80033463A4631462046FFF79AFFCDF8008044
:101AF8002B463A4629462046FFF792FFCDF800804C
:101B08003346424629462046FFF78AFF02B0BDE821
:101B1800F08100002DE9F04F87B08146009117460B
:101B28001C469DF84030C2F101060196C2EBC27214
:101B380052000392002B67D10D4622467918FFF711
:101B480041FF2246E91B4846FFF73CFF224629464B
:101B580007EB0900FFF736FF22462946A9EB0700E5
:101B6800FFF730FF00254FF0010BB246CDF804B067
:101B78003EE00135019B023301939A4405EB090BC2
:101B8800009BFE18224631465846FFF71BFFA9EB7B
:101B98000508224631464046FFF714FF009BDE1B2E
:101BA800224631465846FFF70DFF22463146404649
:101BB800FFF708FF07EB0908009B05EB030B22461C
:101BC80059464046FFF7FEFEA9EB0706224659464E
:101BD8003046FFF7F7FE009BA3EB050B224659465C
:101BE8004046FFF7EFFE224659463046FFF7EAFE29
:101BF800BD4280F2E680BAF1000FBADB013F039BD9
:101C0800023303939A44B4E72246009D7919FFF7FB
:101C1800D9FE2246E91B4846FFF7D4FE2B4607EBC0
:101C280009022946A9EB0700FFF71CFE664D0022B2
:101C380002212846FEF737FF2C20FFF7E1FB01229F
:101C480002212846FEF72FFF0025039E07E0C4F374
:101C58000720FFF7D5FBE0B2FFF7D2FB0135C6F14D
:101C68000103AB42F3D84FF0000B0123049377E054
:101C7800C4F30720FFF7C4FBE0B2FFF7C1FB01364E
:101C88004FEA4B050135B542F2D8009BA3EB0A0198
:101C98000B46059A4046FFF7E5FD4B4E0022022110
:101CA8003046FEF700FF2C20FFF7AAFB0122022195
:101CB8003046FEF7F8FE002607E0C4F30720FFF7DA
:101CC8009FFBE0B2FFF79CFB0136B542F5D8A9EBC4
:101CD8000A08029B009A9918CA440B465246404685
:101CE800FFF7C0FD384D002202212846FEF7DBFE33
:101CF8002C20FFF785FB012202212846FEF7D3FEA0
:101D0800002607E0C4F30720FFF77AFBE0B2FFF7ED
:101D180077FB01367D000135B542F3D8009B029A66
:101D2800991A0B4652464046FFF79CFD264E002264
:101D380002213046FEF7B7FE2C20FFF761FB012297
:101D480002213046FEF7AFFE002607E0C4F3072065
:101D5800FFF756FBE0B2FFF753FB0136B542F5D863
:101D6800BB452EDA019B002B05DB013F039A0232AB
:101D78000392134401930BF1010B049B0233049368
:101D8800019A1A440192CDF808B0A9EB0B08BA469B
:101D9800009BF9180BEB090205920B464046FFF72A
:101DA80061FD094D002202212846FEF77CFE2C2009
:101DB800FFF726FB012202212846FEF774FE0026C3
:101DC8005EE707B0BDE8F08F000002402DE9F0475C
:101DD80082B004460F4691469A460A9E9DF82C50BA
:101DE800012D10D0022D1CD002B0BDE8F08701955E
:101DF800009253464A4639462046FFF741FDA04423
:101E0800A8F1020401363278002AEDD04FEAC5085D
:101E180004EBC503134909688B42E8D947440124F8
:101E2800E5E7114B012283F858200DE00195009257
:101E380053464A4639462046FFF722FD0A4B93F897
:101E4800583004EBC30401363278002ACCD0E800BD
:101E580004EBC503034909688B42E7D90744012409
:101E6800E4E700BF0800002060000020002825DB10
:101E780070B515461C46002906DB114B1A689042BE
:101E880002D25B68994200D370BD013B013AFFF76B
:101E9800E9FC0C4E002202213046FEF704FE2C20FD
:101EA800FFF7AEFA012202213046FEF7FCFDE8B248
:101EB800FFF7A6FAE0B2FFF7A3FAE5E7704700BF1D
:101EC800080000200000024000B58BB000220092FC
:101ED8001F4B196B41F001011963196B01F00101E6
:101EE800009100990192196B41F002011963196B75
:101EF80001F00201019101990292196B41F004016C
:101F08001963196B01F00401029102990392196B8C
:101F180041F008011963196B01F008010391039955
:101F28000492196B41F0100119631B6B03F0100345
:101F38000493049B072305930123069307920892B1
:101F480005A90448FEF7D2FC0BB05DF804FB00BFFE
:101F58000038024000000240FEE7000000B595B0DE
:101F6800002301932A4A116C41F080511164126CCC
:101F780002F080520192019A0293264A116841F4B4
:101F880040411160126802F440420292029A022211
:101F9800089201210B9110210C910E920F930823A6
:101FA8001093C022119204221292139308A8FEF7EC
:101FB80081FD20BB0F230393022304930023059381
:101FC8004FF4A05306934FF480530793032103A8BB
:101FD800FEF7AAFFB8B9FFF755F80F4BA3FB00307F
:101FE8008009FEF759FC0420FEF76AFC002211461E
:101FF8004FF0FF30FEF740FC15B05DF804FB9F2161
:102008000648FFF7A9FFAD210448FFF7A5FF00BF69
:102018000038024000700040D34D6210D8DC03083D
:1020280038B5FEF7A3FBFFF799FFFFF74DFFFFF762
:10203800B9FA0020FFF7B8FB4FF4FA70FEF7C2FBBD
:102048004FF47840FFF7A8FC4FF4FA70FEF7BAFB9C
:102058004FF4FC60FFF7A0FC4FF4FA70FEF7B2FBF8
:102068001F20FFF799FC4FF4FA70FEF7ABFB002036
:10207800FFF792FC4FF4FA70FEF7A4FBFEF766FA3E
:1020880000F000F916E0FEF725FB294B01221A7033
:1020980033E0A4F64954A4B2B4F5F97F06D8B0F5F4
:1020A800AF7F03D940F2ED2398423BD94FF4FA7041
:1020B800FEF788FB1F4C63680020984794F910309E
:1020C800002BF7DAD02000F089F90446902000F0C0
:1020D80085F90546164B1B78002BDAD1A4F68D231B
:1020E8009BB240F2BA22934207D840F6B8339842DE
:1020F80003D940F6AB539842C5D9A4F2B144A4B26F
:1021080040F2BA239C42D1D840F6B8339D42CDD98B
:1021180040F6AB539D42C9D8FEF78EFA044B012214
:102128001A70C3E7FEF712FA014B00221A70BDE7D6
:10213800BC0000201800002010B582B000240094D4
:10214800214B5A6C42F480425A645A6C02F4804221
:102158000092009A01941A6C42F080521A641B6C27
:1021680003F080530193019B0720FEF773FB22467F
:1021780021466FF00B00FEF77FFB224621466FF0E9
:102188000A00FEF779FB224621466FF00900FEF7A8
:1021980073FB224621466FF00400FEF76DFB2246D2
:1021A80021466FF00300FEF767FB224621466FF0D9
:1021B8000100FEF761FB224621464FF0FF30FEF793
:1021C8005BFB02B010BD00BF003802400268114B33
:1021D8009A4200D0704700B587B00021009103F5FE
:1021E80084335A6C42F480525A645B6C03F4805313
:1021F8000093009BA02301930223029303910323DE
:1022080004930523059301A90348FEF76FFB07B064
:102218005DF804FB00300140000002407047FEE713
:10222800FEE7FEE7FEE770477047704708B5FEF720
:10223800B7FAFEF756FB08BD0F49D1F8883043F4CA
:102248007003C1F888300D4B1A6842F001021A6019
:10225800002098601A6822F0847222F480321A6092
:10226800074A5A601A6822F480221A60D8604FF030
:1022780000638B60704700BF00ED00E0003802404B
:102288001030002470B586B0062301930024029410
:10229800039404940C4E01A93046FEF727FB012550
:1022A800019502950394049401A93046FEF71EFB9C
:1022B8003023019302950394049401A90348FEF77F
:1022C80015FB284606B070BD000402400008024015
:1022D80070B50446002516E0002210211048FEF7CC
:1022E800E2FB6400E4B20F4E002201213046FEF703
:1022F800DAFB0120FEF766FA012211463046FEF7A6
:10230800D2FB0135EDB2072D08D814F0800FE3D0C9
:10231800012210210248FEF7C6FBE2E770BD00BFAC
:10232800000802400004024070B50546294C00220E
:1023380001212046FEF7B7FB274E00221021304628
:10234800FEF7B1FB002220213046FEF7ACFB284601
:10235800FFF7BEFF0620FEF735FA002201212046CE
:10236800FEF7A1FB0120FEF72DFA012211462046B7
:10237800FEF799FB0120FEF725FA002201212046ED
:10238800FEF791FB0024254601E00135EDB20F2D43
:1023980018D86400A4B20F4E002201213046FEF77F
:1023A80082FB0120FEF70EFA012211463046FEF7A5
:1023B8007AFB04213046FEF76FFB0028E5D0013494
:1023C800A4B2E2E72409012220210348FEF76BFBAF
:1023D800204670BD000402400008024030B585B0B8
:1023E8000546002409E02846FFF79EFF04AB03EBEF
:1023F800440323F80C0C0134A4B2042CF3D90020B4
:102408001AE001339BB2042B15D804AA02EB400250
:1024180032F80C2C04A901EB430131F80C1C8A4258
:10242800EFD904AD05EB400C2CF80C1C05EB43016F
:1024380021F80C2CE5E72046032803D8441CA4B255
:102448002346E0E70020012308E004AA02EB430248
:1024580032F80C2C104480B201339BB2032BF4D910
:10246800034BA3FB0030C0F34F0005B030BD00BFE5
:10247800ABAAAAAAF8B505460C46064F3878FFF766
:10248800ADFF06467878FFF7A9FF2E80208001204F
:10249800F8BD00BF1400002030B583B005460C46D7
:1024A80001A90DF10600FFF7E5FF08B903B030BD3B
:1024B80069460DF10200FFF7DDFF0028F6D0BDF8F0
:1024C8000230BDF80620934203D803F1310191424E
:1024D80005DA93421ED302F1310199421CDBBDF8A3
:1024E8000000BDF80410884203D800F1310C8C4577
:1024F80004DA884212D33131814211DB13445B1074
:102508002B80BDF80430BDF8002013445B102380F5
:102518000120CBE70020C9E70020C7E70020C5E776
:102528000020C3E710B5044602213348FEF7B4FA89
:1025380000284DD1B4B1314800F112011030FFF735
:10254800ABFF2E4B93F91430002B06DB2B4BC0222C
:102558001A751A8A9A815A8ADA81284B187D00F0EE
:10256800800010BD254800F112011030FFF794FFDC
:102578000028E6D0214BD3ED067A1A8A07EE102AF6
:10258800B8EEC77A27EE277AB3F9202007EE902A0B
:10259800F8EEE77A77EE877AFCEEE77A17EE902A7C
:1025A8001A82D3ED077A5A8A07EE102AB8EEC77A4C
:1025B80027EE277AB3F9222007EE902AF8EEE77A79
:1025C80077EE877AFCEEE77A17EE902A5A82B8E718
:1025D8000A4B1A7D93F91430002B08DB074B0022B5
:1025E8009A81DA814FF6FF721A825A82B5E702F0B1
:1025F8007F02024B1A75B0E7000402401400002065
:10260800DFF834D0002103E00C4B5B584350043111
:102618000B480C4B42189A42F6D30B4A02E00023AF
:1026280042F8043B094B9A42F9D3FFF705FE00F044
:1026380011F8FFF7F5FC704700000220F8DC0308EA
:102648000000002040000020400000201801002069
:10265800FEE7000070B50D4D0D4C641BA41000265C
:10266800A64209D10B4D0C4C00F018F8641BA410BD
:102678000026A64205D170BD55F8043B984701369F
:10268800EEE755F8043B98470136F2E7F0DC03081B
:10269800F0DC0308F0DC0308F4DC0308F8B500BF3D
:1026A800F8BC08BC9E467047F8B500BFF8BC08BC2B
:0426B8009E46704783
:1026BC00FFFF0000FFFF0000FFFF0000FFFF000016
:1026CC00FFFF0000FFFF0000FFFF0000FFFF000006
:1026DC00FFFF0000FFFF0000FFFF0000FFFF0000F6
:1026EC00FFFF0000FFFF0000FFFF0000FFFF0000E6
:1026FC00FFFF0000000000000000000000000000D0
:10270C00FFFF0000000000000000000000000000BF
:10271C00FFFF0000000000000000000000000000AF
:10272C00FFFF00000000000000000000000000009F
:10273C00FFFF00000000000000000000000000008F
:10274C00FFFF00000000000000000000000000007F
:10275C00FFFF00000000000000000000000000006F
:10276C00FFFF00000000000000000000000000005F
:10277C00FFFF00000000000000000000000000004F
:10278C00FFFF00000000000000000000000000003F
:10279C00FFFF0000FFFF0000000000000000000031
:1027AC00FFFF00000000000000000000000000001F
:1027BC00FFFF00000000000000000000000000000F
:1027CC00FFFF0000000000000000000000000000FF
:1027DC00FFFF0000000000000000000000000000EF
:1027EC00FFFF0000FFFF00000000000000000000E1
:1027FC00FFFF0000000000000000000000000000CF
:10280C00FFFF0000000000000000000000000000BE
:10281C00FFFF0000000000000000000000000000AE
:10282C00FFFF00000000000000000000000000009E
:10283C00FFFF0000FFFF0000FFFF0000FFFF000094
:10284C00FFFF00000000000000000000000000007E
:10285C00FFFF00000000000000000000000000006E
:10286C00FFFF00000000000000000000000000005E
:10287C00FFFF00000000000000000000000000004E
:10288C00FFFF0000FFFF0000FFFF0000FFFF000044
:10289C00FFFF00000000000000000000000000002E
:1028AC00FFFF00000000000000000000000000001E
:1028BC00FFFF00000000000000000000000000000E
:1028CC00FFFF0000000000000000000000000000FE
:1028DC00FFFF0000FFFF00000000000000000000F0
:1028EC00FFFF0000000000000000000000000000DE
:1028FC00FFFF0000000000000000000000000000CE
:10290C00FFFF0000000000000000000000000000BD
:10291C00FFFF0000000000000000000000000000AD
:10292C00FFFF0000FFFF000000000000000000009F
:10293C00FFFF00000000000000000000000000008D
:10294C00FFFF00000000000000000000000000007D
:10295C00FFFF00000000000000000000000000006D
:10296C00FFFF00000000000000000000000000005D
:10297C00FFFF00000000000000000000000000004D
:10298C00FFFF0000FFFF0000FFFF0000FFFF000043
:10299C00FFFF0000FFFF0000FFFF0000FFFF000033
:1029AC00FFFF0000FFFF0000FFFF0000FFFF000023
:1029BC00FFFF0000FFFF0000FFFF0000FFFF000013
:1029CC00FFFF0000000000000000000000000000FD
:1029DC001CB714B714B71CB81CB71CB81CB81CB760
:1029EC001CB81CB81CB81CB81CB81CB81CB81CB83B
:1029FC001CB81CB81CB81CB814B714B71CB81CB83D
:102A0C001CB81CB81CB81CB81CB71CB71CB71CB71E
:102A1C002CB834B844D754B754D83C971CB71CB70F
:102A2C0024B724B724B724B724B7249724972C971A
:102A3C002C7724762C762C762C762C762C962C9740
:102A4C002CB72CB72CB72CB72CD82CD82CB82CD8FE
:102A5C002CD824D824D724D72CD72CD72CD734B780
:102A6C003CD83CD83CD82CB724B724D824B724B7AE
:102A7C0024D724D724B724B724B724B72CB744D7EA
:102A8C00551834B72CB724D724D724D724D734B728
:102A9C0034D834D834D82CD734B73CB64CF65D384F
:102AAC00553834D62CB72CB72CB72CD734B82CB708
:102ABC0034B734D744D74CD754F83CD834B734B7A0
:102ACC0034B734B72CB72CB72CB72CB72CB72CB7D2
:102ADC0044D754F75D3755383CD734B734D734D74F
:102AEC0034D734D734D73CD73CD73CF744F744F7EA
:102AFC0044F74CF744F744F744F744F744F744F7EA
:102B0C0044F744F744F744F744F744F744F744F7E1
:102B1C0044F744D744D73CD73CD73CD73CD73CD7D9
:102B2C003CD734D734D734D734D734D734D734B65A
:102B3C0034B634B634D73CD734B734B734B734D7CB
:102B4C0034D734D734D734D734B734D734B634B683
:102B5C003CB63CB734D734D734B63CD73CB73CB78B
:102B6C003CD734D73CD73CD73CB73CD73CB73CB62A
:102B7C0044B744B744B73CD73CB73CB73CB63CB77A
:102B8C003CB73CB73CB63CB73CB73CB73CB63CB7A3
:102B9C003CB73CB73CD73CB73CB63CB63CB73CB773
:102BAC003CB644B73CB744D744D744B744D744D7D2
:102BBC0044B744B744D744B73CD744B644B644B6FC
:102BCC0044B644B644B644B644B644B644B644B629
:102BDC0044B644B744B644B644B644B644B644B618
:102BEC0044B644B644D644B644B644B644B644B6E9
:102BFC0044B644B63CB644B644D644D644B644B6C1
:102C0C0044D644B644B64CD644B644B64CB644B698
:102C1C0044B644B644D644D644B644B644D644B678
:102C2C004CB644B644B644B644B644B644B644B6C0
:102C3C0044B644B64CB64CB64CB64CB64CB64CB688
:102C4C004CB64CB64CB64CB64CB65CB664B65CB531
:102C5C001CB81CD81CB81CD81CD81CD81CB81CB848
:102C6C001CB81CB81CB81CD81CD81CD81CD81CD818
:102C7C001CD81CD81CD81CB71CB71CD724B81CB823
:102C8C001CB81CB81CB71CB81CB71CB81CB81CB89A
:102C9C002CB83CB74CD754D844D82CB71CB71CB75D
:102CAC001CB724B724B724B724B724B724B724B748
:102CBC002CB72CB72CB72CB72CB72CB72CB72CB7F0
:102CCC002CB72CD72CB72CD72CD82CD82CD82CD81C
:102CDC0024D824D824B724D72CD72CD734D734D7FE
:102CEC003CD834D82CB72CB724D724D724D724B726
:102CFC0024D724D724B724B724B724B72CB74CF740
:102D0C0055382CD72CD724D724D724D72CB734B765
:102D1C0034D734D72CD72CD82CD72CB634D73CD787
:102D2C003CB72CB72CB72CB82CB72CD72CD72CB72E
:102D3C0034D73CD74CD754F844B734B734B72CB746
:102D4C0034B72CB72CB72CB72CB72CB72CB734D72F
:102D5C0044D75D1765384CF734B734B734D734D70C
:102D6C0034D734D734D73CD73CD73CF744F74CF75F
:102D7C004CF74CF74CF74CF744F744F744F744F74F
:102D8C0044F744F744F74D174D174CF744F744F705
:102D9C0044F744D744D73CD73CD73CD73CD73CD757
:102DAC003CD73CD734D734D734D734D734D734D7AF
:102DBC0034D734D73CD73CB73CB73CB73CB73CD7FF
:102DCC003CD73CD73CD734D734B73CD734B634B6E1
:102DDC003CB73CB73CD73CD73CB73CD73CB73CB7EF
:102DEC003CB73CB73CB744D73CB73CD644B644B6EA
:102DFC0044D744D744D73CB73CB73CB73CB73CD797
:102E0C003CB73CB73CB63CB73CD73CB73CB73CB7FF
:102E1C003CB73CB73CB73CB73CB73CD73CB73CB7EE
:102E2C003CB744D744B744D744D744D744B744B746
:102E3C0044B74CB74CD744B744B744B644B644B681
:102E4C0044B644B644B644B644B744B644B644B7A4
:102E5C0044B644B644B644B644B644B644B644B696
:102E6C0044B644B644D744B644B644D644D644B625
:102E7C0044B644B644B644B644D644B644B644B656
:102E8C0044B644B644B64CB644B644B64CB644B656
:102E9C0044B644B644B644B644B644B644B644B656
:102EAC004CB64CB644B64CB644B644B644B644B62E
:102EBC0044B64CB64CB64CB64CB64CB64CB64CB6FE
:102ECC004CB64CB64CB64CB64CB654B65C9654B6E6
:102EDC001CB81CD81CD81CD81CD81CD81CD81CB886
:102EEC001CB81CD81CD81CD81CD71CB81CB81CB8B7
:102EFC001CD81CD81CD71CB724D724D724D824B84A
:102F0C0024B824D81CB71CD71CB71CB81CB824B8C0
:102F1C003CD844D74CD84CD834D724D71CD824B759
:102F2C001CB71CD724D724D824B724B724B724B76C
:102F3C0024D82CD82CD72CB72CD72CB72CD72CD8B2
:102F4C002CD82CD82CD82CD82CD82CD82CD82CD855
:102F5C0024D824D82CD72CD72CD734D73CD83CD831
:102F6C0034D72CB724B724D724D724D724D724D7A5
:102F7C0024D724D724B724D724B724B72CB74D187B
:102F8C004D182CD72CD82CD72CD72CB734D83CB7E1
:102F9C0034B72CB72CB724B724D724B724D72CB8E4
:102FAC002CB824D82CB72CD82CD72CD734D734B752
:102FBC0044D754F754F74CD73CB734B734B734D85C
:102FCC002CD72CB72CB72CB72CB72CD734D73CD745
:102FDC004CF75D185D1844D734B734B734D734D7B1
:102FEC0034D734D734D73CD73CF73CF744F744F7C5
:102FFC004CF74CF74D174CF74CF744F744F744F7A4
:10300C0044F744D74CF74D184CF74CF744F744F7BA
:10301C0044D744D744D73CD73CD73CD73CD73CD7F4
:10302C003CD73CD73CD734D734D734D734D73CD71C
:10303C003CD73CD73CD73CD73CD73CD73CD73CD7EC
:10304C003CD73CD73CD73CD73CD73CD73CB73CB71C
:10305C003CB73CB73CB73CB73CB73CD73CB73CB7AC
:10306C0044B744B644B644D744D744D644D644D7E0
:10307C0044D744D744D73CB73CB73CB73CB744D70C
:10308C003CB63CD73CB73CB73CB73CB73CB73CB67E
:10309C003CB73CB63CD73CD73CB73CB73CB744D725
:1030AC0044D744D744B744B744D744D74CB74CB7AC
:1030BC0044B744B644B644B644B644D744B644B612
:1030CC0044D744D744B644D744D744B644B644B79F
:1030DC0044B644B644B644B744B744B644B644B711
:1030EC0044B644D644D744B644B644B644B644B6C3
:1030FC0044B644B644B644D644D644B644B644D694
:10310C0044B644B644B644B644B64CB64CB64CB6CB
:10311C004CB644B644B644B644D644D644B644B68B
:10312C004CB64CB64CB64CD64CB64CB64CB644B66B
:10313C0044B64CB64CB64CB64CB64CB64CB64CB67B
:10314C004CB64CB64CB64CB64CD64CB64CB64CD623
:10315C001CD81CB81CB81CD81CD81CD81CD81CD803
:10316C001CD81CD81CD81CD81CB71CB824B824D804
:10317C001CD81CD81CD81CD81CD81CD824D81CD79C
:10318C001CD824D824D81CB71CB724B724B72CD7E8
:10319C0044D84CF854F844D824D71CD724D82CB78E
:1031AC0024B724B724D824D824D724D724D724D779
:1031BC0024D724D72CD72CD72CD82CD82CD82CD8F7
:1031CC002CD82CD82CD82CD82CD82CD82CD824D8DB
:1031DC0024D82CD82CD72CB734D73CF83CF834F85E
:1031EC0034D724B71CD71CF724D724D72CD72CD7EB
:1031FC0024D724D724D724D724D72CD72CB744D7DB
:10320C003CD724D72CB82CD72CB734D734D83CB7D0
:10321C0034D72CB72CB724B724D82CD82CD82CD8EE
:10322C002CD724D72CB72CB72CB734D73CD74CD7AA
:10323C0054F7551844D63CB734B734B734D72CD7D9
:10324C002CD72CD72CB72CB72CB72CD734D744D79A
:10325C0054F75D1854F73CD734D72CB734B734D760
:10326C0034D734D734D73CF73CF73CF744F744F722
:10327C004CF74D174D174D174CF744F744F744F7DF
:10328C0044F744D74CF74CF74CF74CF744D744D79A
:10329C0044F744F73CD73CD73CD73CD73CD73CD73A
:1032AC003CD73CD73CD73CD734D734D734D73CD792
:1032BC003CD73CD73CD73CD73CD73CD73CD73CD76A
:1032CC003CD73CD73CD73CD73CD73CD73CB73CD77A
:1032DC003CD73CB73CB73CB73CB73CD73CD73CB7EA
:1032EC003CD73CD644B644D644D744D644D744D72E
:1032FC0044D744B744B744B73CD73CD744B744B79A
:10330C003CB644D73CB63CB73CB73CB73CB73CB6F4
:10331C003CB63CB63CD73CB63CB63CD744D744D67E
:10332C0044B644D644D744D74CD74CD744D644B6ED
:10333C0044B744D644D644B644D644D744B644D70E
:10334C0044D744B744B74CD744B744B644B644B654
:10335C0044B644B744B644B644B644B644B744D76E
:10336C0044D744D644D744D744B644B644B644B6FE
:10337C0044B644B644D744D644D644D644D64CD6A8
:10338C0044D64CD64CB64CB644B64CB64CB64CD6D1
:10339C004CD64CD64CD64CD644D64CB64CB64CB679
:1033AC004CD64CB64CB64CD64CB64CB64CB64CB6C1
:1033BC004CB64CB64CB64CB64CD64CD64CD64CB691
:1033CC004CD64CB64CB64CB64CD654B64CD64CD659
:1033DC001CD81CD81CD824D81CD81CD81CD81CD839
:1033EC0024D81CD81CD81CB81CD824D824D824D831
:1033FC001CD81CD81CD81CB81CD81CD81CD81CD841
:10340C001CD824D824D81CB71CD724D724D734D7FD
:10341C004CD74CF844F834D824D71CD72CD72CB71D
:10342C002CB724D724D724D824D724D724D724D8CE
:10343C0024D824D724D72CD72CD82CD82CD82CD87B
:10344C002CD82CD82CD82CD72CD82CD82CD824D75A
:10345C0024D72CD72CD734D73CF83CF834F82CD7BD
:10346C002CD824D71CD724D72CD82CD72CD72CD756
:10347C0024D724D724D724D724D72CD72CD734B768
:10348C002CD72CD72CB72CD834D734D734D834D716
:10349C002CD72CD72CD724D724D72CB834D734D727
:1034AC002CD72CD734D834D73CB74CD754D75D183D
:1034BC005D3844F734B72CB72CB734D734D734D85D
:1034CC002CD72CD72CD72CD72CB734D73CD74CD7C0
:1034DC005517551844D734D734D72CD734D734D7BD
:1034EC0034D734D734D734D73CD73CD744F744F708
:1034FC004CF74D1755174D174CF744F744F744F755
:10350C0044F744F744F74CF74CF74CF744F744F7BF
:10351C0044F744F73CF73CD73CD73CD73CD73CD797
:10352C003CD73CD73CD73CD73CD73CD73CD73CD7F7
:10353C003CD73CD73CD73CD73CD73CD73CD73CD7E7
:10354C003CD73CD73CD73CD73CD73CB73CD73CD7F7
:10355C003CD73CD73CD73CD73CD73CD73CD73CD7C7
:10356C003CD73CD73CD644D744D744D744D744D790
:10357C0044D744B744B744D744D744D744B744B7E7
:10358C0044B744D73CD73CD744D73CB73CD73CD7BF
:10359C003CD73CB644D73CD744B744B744D744D6C1
:1035AC0044B644D64CD74CD74CD64CD644D644D63D
:1035BC0044D744D644D644D644D644D64CD64CD71D
:1035CC004CD74CD64CD64CD644D644D644D64CD6F6
:1035DC0044D64CD644D644D644B644B64CD644D63F
:1035EC0044D644D644D644D644D644B644D644B63F
:1035FC0044B644D64CD744D64CD74CD64CD64CD6E5
:10360C004CD64CD64CD64CD644B64CB64CD64CD6E6
:10361C004CD64CB64CD64CD64CD64CB64CD64CD6CE
:10362C004CD64CB64CB64CB64CD64CB64CB64CB63E
:10363C004CB64CD64CB64CB64CB64CB64CB64CD62E
:10364C004CD64CD64CD64CD54CB554B64CD64CD698
:10365C001CD81CD824D824D81CD81CD71CD81CD8AF
:10366C0024D824B81CD814D814D71CD824D824D8BF
:10367C001CD81CD81CD81CD81CD81CD81CD81CD89E
:10368C001CD824D824D81CB71CB724D724D834D79A
:10369C004CD84CD83CD82CB724D724D72CD72CD7E3
:1036AC002CD724D724D72CD824D72CD72CD72CD70D
:1036BC002CD72CD72CD72CD82CD724D72CB82CD80B
:1036CC002CD82CD72CD72CD82CD82CD82CD82CD7D1
:1036DC0024D72CD72CD73CF83CF834D72CD72CD764
:1036EC002CF824F724D724D72CD82CD82CD82CD78A
:1036FC002CD724D724D724D724D72CD72CD82CB7E5
:10370C002CD72CD82CD72CD83CF83CF834D72CD729
:10371C002CD72CD72CD82CD72CD724D72CD72CD78C
:10372C002CB72CB734B734D74CD75CF76D3765381A
:10373C004CF834B72CD72CD734D734D734B734D83B
:10374C002CD72CD72CD82CD734D734D744D754D704
:10375C0054F74CF83CD734D734D72CD734D734D78C
:10376C0034D734D734D73CD73CD744D744F7451754
:10377C004CF7551755174D174CF744F744F73CD7F2
:10378C003CF744F744F744F744F744F744F744F75D
:10379C0044F744F73CD73CF73CD73CD73CD73CD715
:1037AC003CD73CD73CD73CD73CD73CD73CD73CD775
:1037BC003CD73CD73CD73CD73CD73CD73CD73CD765
:1037CC003CD73CD73CD73CD744D744D73CD73CD745
:1037DC003CD73CD73CD73CD744D744B744D744D745
:1037EC0044D73CD744D744D744D744D744D744D7FD
:1037FC0044D744D744D744D744D744D744D744D7E5
:10380C0044D744D73CD73CD744D73CB73CD73CD71C
:10381C003CD63CD644D744D744D744D744D744D6D7
:10382C0044D644D644B64CD74CD64CD64CD64CD6B3
:10383C004CD74CD74CD74CD74CD64CD644D64CD670
:10384C004CD74CD64CD64CD74CD74CD64CD74CD658
:10385C004CD644D64CD64CD74CD644D64CD644D762
:10386C0044D644D644D644D644D644D644D644D67C
:10387C0044D644D74CD74CD74CD74CD64CB64CD658
:10388C004CD74CD64CB64CD644B64CD64CD64CD663
:10389C004CD64CB64CB64CD64CD64CB64CD64CD66C
:1038AC004CD64CD64CD644B64CB64CD64CD64CD644
:1038BC004CD64CD64CB64CB64CB64CD64CD64CD64C
:1038CC004CB64CD64CB64CB654B64CB64CB64CD694
:1038DC0024D824D824D81CD81CD81CD81CD81CD824
:1038EC0024D824D81CD81CD71CD824D824D824D706
:1038FC001CD71CD71CD81CD824D824D824D824D8FE
:10390C0024D824B824D824B824D824D824D734D8FC
:10391C0044F844D82CB724B724D824D82CD72CD787
:10392C002CD72CD72CD72CD72CD82CD82CB72CD791
:10393C002CB72CD82CD82CD72CD82CD82CB72CD89E
:10394C002CD82CD72CD72CD82CD82CD72CD82CD84E
:10395C0024D82CD834F8351834F834D72CD72CD7A5
:10396C0024D824D72CF82CD82CD82CD72CD72CD71F
:10397C002CD724D72CD724D724D72CD72CD72CD83A
:10398C002CD72CD734D734F83CF834D72CD72CD8A8
:10399C002CD72CD72CD72CB72CD724D724D72CD733
:1039AC002CD734B73CB844F75D177538755854F7B5
:1039BC003CD72CD72CD72CD834D734D734D734D7B2
:1039CC002CD72CD72CD734D734D73CD74CD75CF842
:1039DC0054F744D734D834D734D734D734D734D732
:1039EC0034D734D734D73CF73CD73CD744F74D17B2
:1039FC004D175517551755174D1744F744F744D71E
:103A0C0044F744F744F7451744F744F744F744F7B1
:103A1C003CF73CF73CF73CD744D73CD744F744D76A
:103A2C003CF734F73CD73CD73CD73CD73CD73CD7BA
:103A3C003CD73CD73CD73CD73CD73CD73CD73CD7E2
:103A4C003CD73CD73CD73CD73CD744D744D744D7BA
:103A5C0044D73CD73CD744F744D744D744D744D772
:103A6C0044D744D744D744D744D744D744D744D772
:103A7C0044D744D744D744D744D744D744D744D762
:103A8C0044D744D744D744D744D73CD73CD63CD66C
:103A9C003CD644D644D744D744D744D744D744D74C
:103AAC0044D74CD74CD74CD74CD64CD74CD74CD7FB
:103ABC004CD74CD74CD74CD74CD64CD74CD74CD6E4
:103ACC004CD744D644D64CD74CD74CD74CD74CD7E4
:103ADC004CD64CD64CD64CD64CD64CD64CD74CD6C9
:103AEC004CD64CD64CD644D644D644D644D644D6E2
:103AFC0044D644D64CD74CD64CD64CD64CB64CD6D9
:103B0C004CD64CD64CD64CD64CD64CD64CD74CD698
:103B1C004CD64CD64CD64CD64CD64CD64CD64CD689
:103B2C004CD64CD64CD64CD64CD74CD64CD64CD678
:103B3C004CD64CD64CD64CD64CD64CD64CD64CD669
:103B4C004CD64CD64CD64CD64CB64CB64CD64CD699
:103B5C001CB724D71CD81CD824D824D81CD824D8BB
:103B6C0024D824D71CD81CD824D824D824D824D77B
:103B7C0024D81CD724D81CD824D824D824D824D86A
:103B8C0024B824B824B824D824D824D824D72CD8A2
:103B9C0034F834B82CB724D82CD82CD82CD72CD813
:103BAC002CD82CD82CD834D82CD82CD82CD72CD8E2
:103BBC002CD82CD82CD82CD82CD82CD82CD72CD8DA
:103BCC002CD82CD72CD72CD72CD72CD72CD824D7D7
:103BDC0024D82CD834F834F82CD82CD82CD82CD871
:103BEC0024D82CD82CF82CD82CD82CD72CD72CD893
:103BFC002CD82CD72CD724D724D72CD72CD72CD8AF
:103C0C002CD734D73CF83CF834D834D72CD72CD814
:103C1C002CD82CD82CD734D82CD824D724D72CD883
:103C2C002CD73CD74CF765177D58755854F73CB7D3
:103C3C0034D72CF82CD734D734D734D73CD734D707
:103C4C0034D734D734F734D83CD744F755175D18EC
:103C5C004CF73CD734F734F734F734D83CD73CD74F
:103C6C0034D734D73CF73CF73CF744F744F74D17BF
:103C7C00551755174D174D174D174CF84CD844F890
:103C8C0044F844D744F7451744F844F844D744D78C
:103C9C0044D744D744D744D744D73CF734D744F718
:103CAC003CD73CF73CD73CD73CD73CD73CD73CD750
:103CBC003CD744D73CD73CD73CD73CD73CD73CD758
:103CCC003CD73CD73CD73CD73CD744D744D744D738
:103CDC0044D744D744D744F744D744D744D744D7E0
:103CEC0044D744D744D744D744D744D744D744D7F0
:103CFC0044D744D744D744D744D744D744D744D7E0
:103D0C0044D744D744D744D744D744D744D744D7CF
:103D1C0044D744D744D744D744D744D74CD744B7D7
:103D2C0044B74CD74CD74CD74CD74CD74CD74CD797
:103D3C004CD74CD74CD74CD74CD64CD74CD74CD760
:103D4C004CD744D744D74CD74CD74CD74CD74CD75F
:103D5C004CD74CD74CD64CD644B64CD64CD64CD66D
:103D6C004CD64CD74CD74CD74CD64CD64CD74CD732
:103D7C004CD74CD74CD64CD64CD64CD64CD64CD625
:103D8C004CD64CD64CD64CD64CD64CD64CD74CD715
:103D9C004CD64CD64CD64CD64CD64CD64CD64CD607
:103DAC004CD64CD64CD64CD64CD74CD64CD64CD6F6
:103DBC004CD64CD64CD64CD64CD64CB64CD64CD607
:103DCC004CD654D654D654D654D64CD64CD64CD6B7
:103DDC001C561C9724D724D824D824D824F824D8AB
:103DEC0024D724D724D824D824D824D824D824D8E9
:103DFC0024F824D724D824D824B824D824B824B818
:103E0C0024B82CB824D824B824D824D82CD82CD80E
:103E1C002CD82CB724B72CD82CD824B72CD72CD8EA
:103E2C002CD82CD82CD834D82CD82CD82CD82CD85E
:103E3C002CD82CD82CD82CD82CD82CD82CD82CD856
:103E4C002CD72CD72CD82CD82CD72CF82CD824D732
:103E5C0024D82CD72CD82CD72CD82CD82CD82CD840
:103E6C002CD82CD82CD82CD82CD82CD82CD82CD826
:103E7C002CD82CD82CD824D724D724D72CD834D829
:103E8C0034D73CD73CF834D834D82CD72CD82CD8B1
:103E9C002CD82CD82CD834D82CD82CD72CD82CD8EF
:103EAC0034D754F76D3785787D5854F73CD72CD7D9
:103EBC002CD734D834D834D734D834D734D734D7A3
:103ECC0034F734D734D73CD744D74CF755184CF784
:103EDC0044D73CD734D734D73CF83CD83CD73CF704
:103EEC003CF73CF73CF73CF73CF744F744F84D17EC
:103EFC00551755174D174D174CF74CF84CF73D18F7
:103F0C003CF844F844F744F744F74CF74D17551771
:103F1C00551755174CF74CF744D73CF83CF73CD7A2
:103F2C003CD73CD73CF73CF73CD73CD73CD73CD7AD
:103F3C003CD744D73CD73CD73CD73CD744D744D7C5
:103F4C0044D744D73CD73CD73CD744D744D744D7A5
:103F5C0044D744D744D744F744D744D744D744D75D
:103F6C0044D744D744D744D744D744D744D744D76D
:103F7C0044D744D744D744D744F744D744D744D73D
:103F8C004CD744D744D744D744D744D744D744D745
:103F9C0044D744D744D744D744D744D74CD74CD72D
:103FAC004CD74CD74CF74CD74CD74CD74CD74CD7CD
:103FBC004CD74CD74CD74CD74CD64CD74CD74CF7BE
:103FCC004CD74CD744D74CD74CD74CD74CD74CD7D5
:103FDC004CD74CD74CD74CD74CD64CD74CD74CD7BE
:103FEC004CD74CD74CD74CD74CD74CD74CD74CD7AD
:103FFC004CD74CD74CD74CD74CD74CD64CD74CD79E
:10400C004CD74CD74CD74CD64CD64CD74CD74CD78E
:10401C004CD64CD64CD64CF64CD64CD64CD64CD664
:10402C004CD64CD64CD64CD64CD64CD64CD64CD674
:10403C004CD64CD654D654D654D64CD64CD74CD64B
:10404C004CD654D654D654D654D654D654D654D61C
:10405C0014141C551C9624B724D82CD824F824D816
:10406C0024D724D724D824D82CD82CD824D824D856
:10407C0024D824B724D824D824D824D824D824B796
:10408C0024B82CD824D824B724D824D724D82CD876
:10409C0024D824D824D82CD82CD824D82CD72CD815
:1040AC002CD82CD834D834D82CD82CD82CD82CD8D4
:1040BC002CD82CD834F82CD834F82CD82CD82CD884
:1040CC002CD82CD72CD82CD82CD82CD82CD724D7CF
:1040DC002CD72CD72CD82CD72CF82CD82CF82CF857
:1040EC002CF82CD82CF82CD82CD82CD82CD82CD864
:1040FC002CD82CD724D724F824D824D72CF834D86F
:10410C003CD83CF834D734D72CD82CD82CD834D82D
:10411C0034D834D834D834D82CD82CD82CD72CD854
:10412C003CD76D3785997D785CF73CD734D82CD843
:10413C002CD834D734D834D734D834D734D734F8FF
:10414C0034F734D73CD744D74CF74CF74D1844F7D9
:10415C003CD734D73CD73CD73CD73CD734D73CF7AB
:10416C003CF73CF73CF73CF73CF744F845184D1747
:10417C004D174D174D174D174CF74CF844F744D7C6
:10418C0044D744F74CF754F76D5885B99E3BA65B62
:10419C00AE5BA65B9E3B961A8DFA6D785D3744D666
:1041AC003CF73CF73CD73CF83CF73CD73CD73CD7EA
:1041BC003CD744D73CD73CD73CD744F744D744F7FB
:1041CC0044D744D73CD73CD744D744D744D744D71B
:1041DC0044F744D744D744D744D744D744D744D7DB
:1041EC0044D744D744D744D744D744D744D744D7EB
:1041FC0044D744D744D744D744F744D744D744D7BB
:10420C004CD744D744D744D744D744D744D744D7C2
:10421C0044D744D744D744F744D74CD74CD74CF762
:10422C004CF74CF74CF74CF74CD74CD74CD74CD7EA
:10423C004CD74CD74CD74CD74CD64CD74CD74CD75B
:10424C004CD74CD74CD74CD74CD74CD74CD74CD74A
:10425C004CD74CD74CD74CD74CD74CD74CD74CD63B
:10426C004CD74CD74CD74CD74CD74CD74CD74CD72A
:10427C004CD74CD74CD74CD74CD74CD64CD74CD71B
:10428C004CD74CD74CD74CD64CD64CD64CF64CD6EF
:10429C004CD64CD64CF64CD64CD64CD64CD654D6DA
:1042AC0054D654D654D754D654D654D64CD64CD6C1
:1042BC004CD64CD654D64CD64CD64CD64CD64CD6DA
:1042CC004CD654D754D654D654F654D654D654D679
:1042DC0013D31C141C55249624B72CD824D824D8BA
:1042EC0024B724B724B724D82CD82CB824D824D855
:1042FC0024D824B724D824D824D82CD82CD82CB7FC
:10430C002CB72CB824D724B724D724D824D824D815
:10431C0024D824D824D82CD82CD824D82CD72CD892
:10432C002CD834D834D834D82CD82CD82CD82CD849
:10433C002CD82CD834D82CD834F834F82CD82CD8F9
:10434C002CD82CD82CD82CD82CD82CD82CD72CD743
:10435C002CD82CD72CD82CD82CD82CD82CF82CF8F2
:10436C0034F82CF82CF82CF82CF82CD82CD82CD879
:10437C002CD82CD824F72CF82CD82CD834F83CF882
:10438C003CF834F82CD72CD72CD72CD72CD834D8A5
:10439C0034D834D834D834D834D82CD82CD734D7C3
:1043AC0044D775587D79551734D734D834B834D8A8
:1043BC0034D734D734D734D734D834F73CD734F84F
:1043CC0034F73CD73CD74CF74CF84D184D183CD72C
:1043DC0034D734D73CD73CD73CF73CF73CF73CF8C8
:1043EC003CF73CF73CF73CF73CF744F745184D18C5
:1043FC004D174D174D174D174D1744F744F844F80A
:10440C004CF75D187DBAA67BC6DDD6DCCE7BC5F934
:10441C00BD56B556B557BDD8C65AC6BCAE9C85D987
:10442C00551744D644D73CD73CF73CF73CD73CD740
:10443C003CF744D744F744F744F744F744F744F7C0
:10444C0044D744D744F744F744F744F744F744F7C8
:10445C0044F744F744D744D744D744D744F744F7F8
:10446C0044D744D744D74CD74CD74CF744D74CF708
:10447C0044D744D744D744D744D744D744D744D758
:10448C0044D744D74CF74CF744F744D744D644F7B9
:10449C0044D744D744D74CF744D74CD74CD74CD7F8
:1044AC004CD74CF74CF74CF74CF74CD74CD74CF748
:1044BC004CF74CD74CD74CD74CD64CF74CD74CD69A
:1044CC004CD74CD74CD74CD74CD74CD74CD754F7A0
:1044DC004CF74CF74CD74CD74CD754D74CD74CD671
:1044EC004CD64CF74CF64CF74CF64CF74CF74CD7EB
:1044FC004CF74CF74CD64CD64CD64CD64CD64CD65E
:10450C004CD64CF74CD74CD64CD64CD64CF64CF62D
:10451C004CD64CD64CD64CD64CD64CD64CD654D776
:10452C0054D754D754D754D654D654D654D654D62C
:10453C004CD654D654D654D64CD654D64CD654D637
:10454C0054D654D654D654D654F654F654D654D6CF
:10455C00139113B213F31C351C7624B724D824D82A
:10456C0024D82CD824B82CD82CD82CD82CD82CD84F
:10457C002CD824B724D82CD82CD82CD82CD82CB761
:10458C002CD82CB824D824D724D724D824D824D851
:10459C0024D824F824D82CD82CD824D82CD834F8C7
:1045AC002CD82CD82CD82CD82CD82CD82CD82CD8DF
:1045BC002CD82CD82CD834D834F834F834D82CD86F
:1045CC002CF82CF82CF82CF834F834F834F82CF8A7
:1045DC002CF82CD82CD82CD82CF82CD82CF82CF82F
:1045EC002CF834D834D834F82CF82CF834F834D8D7
:1045FC002CD82CF82CD72CD834F834F83CD83CF8E0
:10460C003CD834D82CD82CD82CD82CD834D834D856
:10461C0034D834D834D834D834D82CD82CD834D83E
:10462C003CF8551854F73CD62CF734D83CD844F801
:10463C0044F844F83CD734D734F734F83CF834D742
:10464C0034F83CF844F74D1855184CF844F734D767
:10465C0034F734F73CF73CF73CF83CF73CF73CF8C4
:10466C003CF73CF73CF73CF73CF744F844F844F78C
:10467C004D174D1745174517451744F74CF7551768
:10468C007DD9BEFDD73DD6BBC5F8B515A45293D088
:10469C00938F93AF93AF9C10A472B556CE5ACEFDA8
:1046AC00BEBC85B854F744F73CF73CF73CD73CF715
:1046BC003CF744D744F744F744F744F744F744F73E
:1046CC0044D744D744F744F744F744F744F744F746
:1046DC0044F744F744F744D744D744D744F744F756
:1046EC0044D744D74CD74CD74CD74CF84CF74CF755
:1046FC0044D744F744F744F744F744F744D744D736
:10470C004CD744D744F74CF744F744F744F74CD70D
:10471C004CD74CF74CF74CF744D74CD74CD74CD71D
:10472C004CD74CF74CF74CF74CF74CD74CD74CD7E5
:10473C004CD74CD74CD74CF74CD74CD74CD74CD735
:10474C004CF74CF74CF74CD74CD74CD74CD754F7BD
:10475C004CF74CF74CF74CD74CF754F754F74CF745
:10476C004CF74CF74CF74CD64CD64CD64CF74CF788
:10477C004CF74CF74CD64CD64CD64CD64CF74CF799
:10478C004CD64CF74CF74CF74CF74CD64CD74CD688
:10479C004CD64CD64CD64CD64CD64CF74CD64CD6DC
:1047AC0054F754F74CD64CD74CD654D654D654D682
:1047BC0054D654D654D654D654D654F754F754D65B
:1047CC0054D654D654D64CD654D654D654D654F675
:1047DC001330137113B213F314351C7624B724D889
:1047EC0024D82CD82CD82CD82CD82CD82CD82CD8A5
:1047FC002CD824B72CD72CD72CD72CD82CD82CB8D9
:10480C002CD82CD824D824D824D824D824D824D8AC
:10481C0024D824D824D824D82CD824D82CD834D88C
:10482C0034F834F82CD834D82CD82CD82CF82CD8E4
:10483C002CD834D834D834F834F834D82CD82CD8E4
:10484C002CF834F82CF82CD82CF834F834F834F83C
:10485C0034F82CF82CD82CF82CF834F82CF82CF83C
:10486C0034F834F834F834F82CF834F834F834F8E4
:10487C002CD82CF82CD834F834F83CF83CF844F804
:10488C003CD834D82CF82CF834F834D834D834D864
:10489C0034D834F834D834D834D82CD834D834D894
:1048AC0034D83CD734D734D734D734D734F744F84A
:1048BC004CF84D1844F83CF734F73CF83CF834D736
:1048CC0034F83CF84CF85518551844F73CF734F8C4
:1048DC0034F834F83CF73CF73CF73CF73CF73CF742
:1048EC003CF73CF73CF73CF73CF744F7451844F7EA
:1048FC004517451745173CF744F754F77D77B69B9A
:10490C00DF3DDEDBC5D7ACD3A4329BD1934F8B0DEF
:10491C0092ED92ED930D9B2E9B8F9BD1AC93BD97FB
:10492C00D69BCF1D9E5B5D5844F73CF73CF73CD7BC
:10493C003CF73CD744F744F744D744F744F844F7E2
:10494C0044F744F744D744F744F744F744F744F7A3
:10495C0044F744F744F744F744F744F744F744F773
:10496C0044D74CF74CF74CF74CD74CF74CF74CF76B
:10497C0044F744F744F744F744F744F744D744D793
:10498C0044F744F744F744F744F744F744F74CD75B
:10499C004CD74CF74CF74CF74CF74CF74CF74CF713
:1049AC004CD74CF74CF74CF74CF74CD74CD74CD763
:1049BC004CD74CD754D74CF74CF74CD74CF74CF74B
:1049CC004CD74CF74CF74CD74CD754F754F754F70B
:1049DC004CD74CF74CF74CD74CF74CD74CF754F70B
:1049EC0054F754F754F754F74CF754F754F74CF773
:1049FC004CF74CF74CF74CF74CD64CD64CD64CD617
:104A0C004CD64CF64CF74CF754F754F754D754F7A4
:104A1C004CD654D654F654F754F754F74CF64CD6AF
:104A2C004CD64CF74CF64CF64CD654F754D654D6D0
:104A3C0054F654F654D654D654D654F654D654D6BA
:104A4C0054D654D654D654D654D654F654D654D6EA
:104A5C0012EE132F137013B213F31C34247624B7F5
:104A6C002CD72CD82CD82CD82CD82CD82CD82CD81B
:104A7C002CD82CD82CD82CD82CD82CD82CD82CB82A
:104A8C002CB824D824D82CD82CD824D824F824F802
:104A9C0024F824F824F82CD72CF82CF82CF834F81B
:104AAC0034D834F834D834D834F834F82CD82CD84A
:104ABC0034D834D834F83D1834F82CD82CD834F8F1
:104ACC0034F834F82CF82CF82CF82CF834F834F89A
:104ADC002CF82CF82CF82CF834F834F834F834F88A
:104AEC0034F834F834F834F82CD834F834F82CD8AA
:104AFC0034F834F82CF834F83CF83CF83CF83CD852
:104B0C0034D834F834F834F834D834D834F834F899
:104B1C0034F834F834F834F834F834F834F834F829
:104B2C0034F834D834F834D83CD83CD83CD844F891
:104B3C0044F84CF84CF84CF844F73CF83CF83CF78B
:104B4C003CF744F84CF855184CF744F734F734F864
:104B5C0034F834F83CF83CD73CF73CF73CF73CF7DE
:104B6C003CF73CF73CF73CF73CF744F7451744F768
:104B7C00451745173CF744D755178E3BD73DE75D96
:104B8C00CE38B535AC929BF09B6F934E8B2E8B0D24
:104B9C008ACC92CC8ACC9B0D9B4E9B4F9B90AC733A
:104BAC00BD37CE3ACEFCB69C757844D73CF744D78B
:104BBC0044F844F744F744F744F744F744F744F710
:104BCC0044F744F744F744F744F744F744F744F701
:104BDC0044F744F744F744F744F744F744F744F7F1
:104BEC0044F74CF744F74CF74CD74CD74CF744F7F9
:104BFC0044F744F744F74CF74CF744F744F744F7C1
:104C0C004CD74CF74CF74CF744F744F74CF74CF7B0
:104C1C004CF74CF74CF74CF74CD74CF74CF74CF790
:104C2C004CF74CF74CF74CD74CD74CD74CD74CD700
:104C3C004CD74CD754D74CD74CF74CF754F754F7B8
:104C4C004CF74CF754F754F74CF754F754F754F718
:104C5C004CF754F754F74CF74CF74CF754F754F710
:104C6C0054F74CF754F754F74CF754F754F74CF7F8
:104C7C004CF754F754F754F74CD74CD654D654D66B
:104C8C0054D654F64CF654F654F754F754F754F7EC
:104C9C0054F654D654F654F754D654D64CD64CD667
:104CAC004CD654F654D654F64CF654F754F754F6F6
:104CBC0054F654F654D654F654F654D654D654F6F8
:104CCC0054F654D654F654F654F654F654F654F6A8
:104CDC0012AC1AED1B2F1B501B921BD31C152476E8
:104CEC0024972CD82CD72CD82CD82CD82CD82CD8E2
:104CFC0024D82CD82CD82CD82CD82CD82CD82CD890
:104D0C002CD824D82CD82CD82CD82CD824D824F86F
:104D1C0024F824D82CD82CD82CF82CF82CF834F8CF
:104D2C0034F834F834F834F834F834F834F834F817
:104D3C0034D834F83CF834F834F82CF834F834F827
:104D4C0034F834F834F834F834F834F834F834F8F7
:104D5C0034F82CF82CF82CF834F834F834F834F8FF
:104D6C0034F834F834F82CF82CF834F834F834F8E7
:104D7C0034F82CF82CF834F83D183CF83CF834D8BE
:104D8C0034F834F834F834F834F834F834F834F8B7
:104D9C0034F834F834F834F834F834F834F82CD8CF
:104DAC0034F834F834F834D834D834D83CD83CD728
:104DBC003CD744D84CF84CF84CF844F844F844F739
:104DCC0044F744F854F8551844F73CF734F73CF8DA
:104DDC0034F834F83CF83CF73CF73CF73CF73CF73C
:104DEC003CF73CF73CF73CF73CF73CF7451744F7EE
:104DFC004CF845174D176538A69BDF7EDEFDBD765A
:104E0C00A43193D09BF19B6F9B2E8B0D8B2D8AEC39
:104E1C0092ED8ACC8ACC8AEC930D92EC9B4EA3B08B
:104E2C00AC12BCF5C5D8CE9BBE9B7D9944F744F81B
:104E3C0044F744F744F744F744F744F844F744F78D
:104E4C0044F744F744F744F744F744F744F744F77E
:104E5C0044F744F744F744F744F74CF744F744F766
:104E6C004CF74CF74CF744F74CD74CF74CF744F74E
:104E7C0044F744F74CF74CF74CF74CD74CD74CF75E
:104E8C004CF74CF74CD74CF74CF74CF74CF74CF71E
:104E9C004CF74CF74CF74CF74CF74CF74CF74CF7EE
:104EAC004CF74CF74CF74CF74CF754F754F754F7C6
:104EBC0054F74CD754F754F74CF754F754F754F7BE
:104ECC0054F74CF74CD754F754F754F754F754F7AE
:104EDC0054F754F754F74CF74CF754F754F754F77E
:104EEC0054F74CF754F754F754F754F754F754F766
:104EFC0054F754F754F754F754F754D754F754F66F
:104F0C0054F654F754F654F654F654F754F754F741
:104F1C0054F754F654F654F654D654D654D654D6B4
:104F2C0054D65CD65CD65CD654D654D654F654F6CD
:104F3C0054F654F654D654F654F654D654F654F655
:104F4C0054D654D654F654F654F654F654D654F665
:104F5C00124A1AAB1AED1B0F1B501B911BB21BF301
:104F6C00245524962CB72CD72CD82CD824B82CD834
:104F7C0024D82CD82CD82CD82CD82CD82CD82CD80D
:104F8C002CF82CD82CF82CD82CD82CD82CD82CD8B5
:104F9C0024D82CD82CF82CF82CF834F834F834F815
:104FAC003CF8351834F834F8351834F834F834F84B
:104FBC003CF83D193CF834F834F834F834F834F84B
:104FCC0034F834F834F834F834F834F834F834F875
:104FDC0034F834F834F834F834F834F834F834F865
:104FEC0034F834F8351835182CF834F834F834F81B
:104FFC0034F82CF82CF834F8351834F834F834F834
:10500C002CF834F834F834F834F834F834F834F83C
:10501C0034F834F834F834F834F834F834F834F824
:10502C0034F834F83CD834D834F834D83CD83CF87C
:10503C0034D83CD83CF844F84CF84CF84CF84CF8C4
:10504C004CF84CF854F84CF83CF734F734F73CF87F
:10505C003CF83CF83CF83CF73CF73CF73CF73CF7A9
:10506C003CF73CF73CF73CF73CF73CF744F745186A
:10507C0044F855176D57C6FDEF7DCDF79C31830E67
:10508C0082AC8AAC932D930D8B0D8B0C8B2D8AECF3
:10509C008ACC8AAC8AAC8AAB8A8B8AAC92EC9B0D9C
:1050AC00A36EABF1C4F5CDB7CE19CEBC7D994CF740
:1050BC0044F744F744F744F744F744F7451744F7EB
:1050CC0044F744F744F744F744F744F744F744F7FC
:1050DC0044F744F744F744F74CF74CF74CF74CF7CC
:1050EC004CF74CF74CF844F74CF74CF744F744F7B3
:1050FC004D174D174CF74CF74CF74CF74CF74CF74A
:10510C004CF74CF74CF74CF74CF74CF74CF74CF77B
:10511C004CF74CF74CF74CF74CF74CF754F74CF763
:10512C004CF74CF74CF74CF754F754F754F754F73B
:10513C0054F754F75517551754F754F754F754F7C9
:10514C0054F754F74CF754F754F754F754F754F703
:10515C0054F754F74CF74CD74CF74CF754F754F72B
:10516C0054F754F754F754F754F754F754F754F7DB
:10517C0054F754F754F754F754F754F754F754F7CB
:10518C0054F754F654F654F754F754F754F654F6BF
:10519C0054F754F754F754F754F754F65CF65CF69E
:1051AC0064F66CF675166CF664F65CD654F654F62A
:1051BC0054F654F654F654F654F654F654F654F693
:1051CC0054F654F654F654F654F654F654F654F683
:1051DC0012081249128B12CC1B0E1B4F1B901BB2C8
:1051EC001BF324352C762CB72CD72CD824D82CD8C0
:1051FC0024D824F82CD82CD82CD82CD82CD82CD873
:10520C002CF82CD82CF82CD82CD82CD82CD82CD832
:10521C002CF82CF834F82CF834F834F834F834F83A
:10522C003CF834F834F834F834F834F83CF83CF8FA
:10523C003D183CF834D834F834F83CF834F834F8E9
:10524C0034F834F834F834F834F834F834F834F8F2
:10525C0034F834F834F834F834F834F834F834F8E2
:10526C0034F834F83518351834F834F834F835186F
:10527C0034F834F82CF834F8351834F834F82CF8B1
:10528C002CF834F834F834F834F834F834F834F8BA
:10529C0034F834F834F834F834F834F8351834F881
:1052AC0034F834F83CD834F734F734F73CF83CF89D
:1052BC0034F834F834F83CF844F74CF84CF84D1802
:1052CC004D18551855184D183CF734F73CF73CF869
:1052DC003CF83D183CF73CF73CF73CF73CF73CF707
:1052EC003CF73CF73CF73CF73D173CF8451844F7C6
:1052FC0045376D78BEFDDF1CBD558BAF830D828CA1
:10530C00824B8A4A8AAA934D93AF93AF9BEF938EAD
:10531C008AEC8ACC8ACC8A8B8AAB8ACC8AAC9ACD22
:10532C009AEDA390C4D4D5D7CDB7C5D8C69B757804
:10533C0044F7451844F744F744F744F7451744F746
:10534C0044F744F744F744F744F744F744F744F779
:10535C0044F744F744F74CF74CF74CF74CF74CF741
:10536C004CF74CF74D1744F74CF74CF74CF74CF700
:10537C004CF74CF74CF74CF74CF74CF74CF74CF709
:10538C0054F754F754F754F754F74CF74CF74CF7D1
:10539C004CF74CF754F754F74CF74CF754F754F7C9
:1053AC004CF754F74CF754F754F754F754F754F7A9
:1053BC0054F754F7551754F754F754F754F754F768
:1053CC0054F754F74CF7551754F754F754F755173F
:1053DC0054F754F754F754F754F754F754F754F769
:1053EC0054F754F754F754F754F754F754F754F759
:1053FC0054F754F754F754F754F754F754F754F749
:10540C0054F754F654F654F654F654F754F654F63E
:10541C00551654F654F754F754F65CF664F66D16BC
:10542C007D16851685377D376D165CF654F654F669
:10543C0054F654F654F654F654F654F654F654F610
:10544C005CF754F654F654F654F65D175D1754F6A3
:10545C0011E811E81229126B12AC1AEE1B2F1B70FB
:10546C001BB21BD324342C762CB72CD82CD82CF86C
:10547C0024F824F82CD82CD82CF82CF82CD834F868
:10548C002CD82CD82CF82CD82CD82CD82CD82CF8B0
:10549C002CF82CF834F82CF834F834F834F83CF8B0
:1054AC0034F834F834F834F834F83CF844F8451847
:1054BC00451834F834F834F83CF844F83CF834F82F
:1054CC0034F834F834F834F834F834F834F834F870
:1054DC0034F834F834F834F834F8351834F834F83F
:1054EC0034F834F834F834F834F834F8351835180E
:1054FC0034F834F834F834F83518351834F82CF806
:10550C0034F834F834F834F834F834F834F834F82F
:10551C0034F83D1834F834F834F834F834F834F8F6
:10552C0034F834F834F834F734F83CF73CF83CF8F9
:10553C003CF834F834F83CF83CF844F844F844F8B7
:10554C004D184D1855184D183D183CF73CF73CF8C4
:10555C003CF83CF83CF73CF73D183CF73CF73CF783
:10556C003CF73CF73CF73CF73D173CF844F84D173B
:10557C005D16B69BDF1CB5558BAF830D82AC7A4A9A
:10558C00822A81E98A8A93ED9C70A4D2B533ACB29D
:10559C009C0F938E82EB8AEC8ACC8ACC8ACC92AC10
:1055AC0092ACA38FCD35D5B7CD76C576CE19BE9B33
:1055BC005D16451744F74CF744F7451744F744F785
:1055CC0044F744F744F744F744F744F745174517B5
:1055DC004D174CF74CF74CF74CF74CF74CF74D1765
:1055EC004D174D174D174D174CF74CF74D174CF7F2
:1055FC004CF74CF74CF74CF74CF74CF74CF74CF787
:10560C004CF74CF74D174CF7551754F74D174CF703
:10561C004CF754F754F754F74CF754F7551754F715
:10562C0055175517551754F754F754F754F754F7B3
:10563C0054F754F754F754F754F754F75CF75CF7F6
:10564C0054F754F74CF754F754F754F754F75517DD
:10565C0054F754F755175517551754F754F754F783
:10566C0054F754F754F7551754F754F754F754F7B5
:10567C0054F754F754F754F754F754F754F754F7C6
:10568C0054F754F654F654F654F654F754F65D1693
:10569C006516651664F65CF65CF6651675167D3651
:1056AC0085368D368D378537751764F654F654F676
:1056BC0054F654F654F654F654F654F654F654F68E
:1056CC00551654F654F654F65CF65D175D1754F601
:1056DC00220919E811E81229126B1AAC1ACD132FF2
:1056EC0013701B921BD32434247624B72CD82CF89B
:1056FC0024F824D82CF82CD82CD82CF834F834F8DE
:10570C002CD82CF82CF82CF82CF82CF82CF82CF88D
:10571C0034F82CD82CF82CF834F834F83CF83CF845
:10572C0034F834F834F834F83CF844F845184D188B
:10573C003CF83D18351834F83CF84D193CF834F861
:10574C0034F834F834F834F835183518351834F88A
:10575C0034F834F834F834F834F8351834F835189B
:10576C00351834F834F834F8351834F83518351849
:10577C0034F834F834F834F83518351834F835185A
:10578C0034F834F834F834F83D183D1934F83D1831
:10579C003D183D1834F834F834F834F834F834F84B
:1057AC0034F834F834F834F834F83CF83CF83CF875
:1057BC003CF83CF83CF834F83CF83CF83CF844F83D
:1057CC00451845174CF844F845183CF73D183CF87B
:1057DC003CF83CF83CF73D183D183CF73D173D189C
:1057EC003D183D183CF73D173D173CF844F84CF775
:1057FC009E3ADF1DB5768BB07AED7AAC828C822A1C
:10580C0081E981C88ACB944E944E94B09CD09CD1A3
:10581C009CB19C7093CE8B2C8AEC8ACC8ACC8A8BD4
:10582C00928BBC10D555CD56C555C535CD97DEBC24
:10583C009E3A451645174CF74517451744F74CF754
:10584C004D1744F744F744F744F7451745174517E8
:10585C004D174D174CF74CF74CF74CF84CF74D17C0
:10586C004D174D1744F74D174CF74CF74CF74CF7B9
:10587C004CF74CF74CF74CF74CF74CF74D174D17C2
:10588C004CF74CF74CF74CF7551754F74D1754F79A
:10589C0054F754F754F754F754F754F754F754F7A4
:1058AC0055175517551855175517551754F754F7CD
:1058BC0054F754F754F75CF75CF765376D376D3771
:1058CC005D1755174CF7551754F754F754F75517F0
:1058DC00551754F755175517551754F754F754F7E0
:1058EC0054F754F754F7551754F754F7551754F712
:1058FC005CF75CF754F754F75517551754F754F7F2
:10590C00551754F754F654F654F654F75CF76D17D4
:10591C007D577D5675366D1664F6751685378D3741
:10592C009536953695368517751764F654F654F7F3
:10593C0055175D1754F65516551654F654F654F67D
:10594C0054F654F655175D175D175CF754F65D1752
:10595C00220921E911C811E81209122A126B12CD81
:10596C001B0E1B501B911BD31C1424552CB72CD76E
:10597C002CD82CF82CD82CD82CD82CD834F834F88B
:10598C0034F82CF82CD82CD834F82CF82CF82CD83B
:10599C0034F834F834F834F834F83CF83CF834F88B
:1059AC00351834F83CF83CF844F84D1945193D18B5
:1059BC003D1835183CF844F84D1944F83CF834F8C7
:1059CC0034F8351834F834F834F834F834F834F84A
:1059DC0034F834F834F834F8351834F8351834F819
:1059EC00351835183518351834F834F834F83518A6
:1059FC003518351834F835183518351834F834F896
:105A0C0034F834F834F834F83D183D183D193D1885
:105A1C003D183D183518351835183D1835183518FA
:105A2C003518351834F834F834F834F834F83CF8C0
:105A3C003CF83CF83CF83CF83CF83D183D183CF878
:105A4C003CF83CF844F845183D183CF73CF73D1839
:105A5C0045183D183D183CF83D183D183D183D18AB
:105A6C003D183D183D183D183D173D184D1785B88C
:105A7C00E75EBD988BD072CC726B828B824A8209A6
:105A8C0081C881E793CDAD728BCC4A05524662C971
:105A9C00738C840E9C70A4D19C7093CE82EB9B2D46
:105AAC00A34ECCB3CCF4C4F4C515C515CD77DE39F3
:105ABC00E73D7D9845174517451745184CF74D1789
:105ACC004D174D174517451745174D174D174D17C2
