:020000040800F2
:1000000000400120A11100083D1100084511000821
:100010004D110008551100085D1100080000000096
:100020000000000000000000000000006511000852
:1000300071110008000000007D11000889110008FE
:10004000E9110008E9110008E9110008E9110008A8
:10005000E9110008E9110008E9110008E911000898
:10006000E9110008E9110008E9110008E911000888
:10007000E9110008E9110008E9110008E911000878
:10008000E9110008E9110008E9110008E911000868
:10009000E9110008E9110008E9110008E911000858
:1000A000E9110008E9110008E9110008E911000848
:1000B000E9110008E9110008E9110008E911000838
:1000C000E9110008E9110008E9110008E911000828
:1000D000E9110008E9110008E9110008E911000818
:1000E000E9110008E9110008E9110008E911000808
:1000F000E911000800000000E9110008E9110008FA
:10010000E9110008E9110008E9110008E9110008E7
:10011000E9110008E9110008E911000800000000D9
:10012000E9110008000000000000000000000000CD
:0C01300000000000000000005FF808F173
:10013C0010B5054C237833B9044B13B10448AFF315
:10014C0000800123237010BD24000020000000005B
:10015C00AC28000808B5034B1BB103490348AFF3A7
:10016C00008008BD0000000028000020AC2800081A
:10017C0053B94AB9002908BF00281CBF4FF0FF3102
:10018C004FF0FF3000F068B9ADF1080C6DE904CE0A
:10019C0000F006F8DDF804E0DDE9022304B0704756
:1001AC002DE9F047089D0C46002B4ED194468C450A
:1001BC008646B2FA82F262D94AB1C2F1200391406A
:1001CC0020FA03F30CFA02FC194300FA02FE4FEA80
:1001DC001C47B1FBF7F407FB14111FFA8CF64FEA1E
:1001EC001E4343EA014304FB06F199420AD91CEB76
:1001FC00030304F1FF3080F01081994240F20D812D
:10020C00023C6344591AB1FBF7F007FB101100FBD9
:10021C0006F61FFA8EF343EA01439E420AD91CEB01
:10022C00030300F1FF3180F0FA809E4240F2F78028
:10023C006344023800219B1B40EA04401DB1D340AB
:10024C000022C5E90032BDE8F0878B4205D90DB11B
:10025C00C5E9000100210846F5E7B3FA83F100294E
:10026C0046D1A34202D39042C0F0EE80861A64EBD2
:10027C0003030120002DE6D0C5E90063E3E7002A63
:10028C0040F08F80A1EB0C0401214FEA1C481FFAAF
:10029C008CF7B4FBF8F608FB164407FB06F04FEAA4
:1002AC001E4343EA0443984208D91CEB030306F1AE
:1002BC00FF3402D2984200F2CB8026461C1AB4FBC3
:1002CC00F8F008FB104400FB07F71FFA8EF343EA23
:1002DC0004439F4208D91CEB030300F1FF3402D204
:1002EC009F4200F2AE802046DB1B40EA0640A5E7A9
:1002FC00C1F120078B4022FA07FC4CEA030C24FACC
:10030C0007F64FEA1C49B6FBF9F81FFA8CFE09FBFD
:10031C00186620FA07F38C4000FA01FA08FB0EF07D
:10032C001C43230C43EA0643984202FA01F20AD911
:10033C001CEB030308F1FF3680F0818098427ED9D4
:10034C00A8F1020863441E1AB6FBF9F309FB136605
:10035C0003FB0EFEA4B244EA0644A64508D91CEBE6
:10036C00040403F1FF3066D2A64564D9023B644411
:10037C0043EA0840A0FB0283A4EB0E049C42C64651
:10038C001E4650D34DD055B1BAEB0E0364EB0604A8
:10039C0004FA07F7CB401F43CC40C5E90074002199
:1003AC0051E70CFA02FCC2F12003D9404FEA1C4879
:1003BC0020FA03F300FA02FEB1FBF8F008FB10116F
:1003CC0094401C431FFA8CF7230C43EA014300FBB7
:1003DC0007F1994208D91CEB030300F1FF362CD22C
:1003EC0099422AD9023863445B1AB3FBF8F108FB33
:1003FC001133A4B244EA034401FB07F3A34208D926
:10040C001CEB040401F1FF3613D2A34211D90239BB
:10041C006444E41A41EA00413BE70446F2E608462C
:10042C0008E7C245AFD2B8EB020E63EB0C060138FD
:10043C00A9E73146EDE703469AE73046D4E7B046E4
:10044C0081E7634402384FE706462346084611E726
:10045C00023E634432E700BF704700BF80B500AF77
:10046C0000221021024801F0BFF900BF80BD00BF7F
:10047C000000024080B500AF01221021024801F0BB
:10048C00B3F900BF80BD00BF0000024080B500AFD3
:10049C0000220121064801F0A7F9052000F00EFF0B
:1004AC0001220121024801F09FF900BF80BD00BF6D
:1004BC000004024080B582B000AF0346FB710022FD
:1004CC000221074801F090F9F91D4FF0FF3301228A
:1004DC00044801F0ACFF00BF0837BD4680BD00BF2B
:1004EC00000402404000002080B584B000AF78606A
:1004FC00396001220221114801F076F915E03B68C0
:10050C00B3F5004F28BF4FF40043FB81FA894FF03D
:10051C00FF3379680A4801F08AFFFB897A68134433
:10052C007B60FB893A68D31A3B603B68002BE6D1B1
:10053C0000BF00BF1037BD4680BD00BF00040240A5
:10054C004000002090B585B000AF04460846114627
:10055C001A462346FB800346BB800B467B80134622
:10056C003B802A20FFF7A6FFFB881B0A9BB2DBB25D
:10057C003B73FB88DBB27B737B881B0A9BB2DBB2C1
:10058C00BB737B88DBB2FB7307F10C0304211846A9
:10059C00FFF7AAFF2B20FFF78DFFBB881B0A9BB22E
:1005AC00DBB23B72BB88DBB27B723B881B0A9BB213
:1005BC00DBB2BB723B88DBB2FB7207F10803042190
:1005CC001846FFF791FF2C20FFF774FF00BF14377C
:1005DC00BD4690BD90B59BB000AFFFF73FFFFFF756
:1005EC0055FF0120FFF766FF4FF47A7000F066FEAE
:1005FC00CB20FFF75FFF874A07F1600392E8030007
:10060C0018600433197007F1600305211846FFF7D1
:10061C006BFFCF20FFF74EFF7F4A07F15C03126898
:10062C00114619800233120C1A7007F15C03032176
:10063C001846FFF759FFE820FFF73CFF774A07F110
:10064C0058031268114619800233120C1A7007F104
:10065C00580303211846FFF747FFEA20FFF72AFF4C
:10066C000023A7F8543007F1540302211846FFF772
:10067C003BFFED20FFF71EFF694B3B6507F1500375
:10068C0004211846FFF730FFF720FFF713FF202354
:10069C0087F84C3007F14C0301211846FFF724FF73
:1006AC00C020FFF707FF232387F8483007F14803E2
:1006BC0001211846FFF718FFC120FFF7FBFE10239E
:1006CC0087F8443007F1440301211846FFF70CFF6B
:1006DC00C520FFF7EFFE42F63E03A7F8403007F1C6
:1006EC00400302211846FFF7FFFEC720FFF7E2FE8A
:1006FC00862387F83C3007F13C0301211846FFF7AD
:10070C00F3FE3620FFF7D6FE482387F8383007F182
:10071C00380301211846FFF7E7FE3A20FFF7CAFE1F
:10072C00552387F8343007F1340301211846FFF7BD
:10073C00DBFEB120FFF7BEFE4FF4C0533B8607F142
:10074C00300302211846FFF7CFFEB620FFF7B2FEAA
:10075C00344A07F12C031268114619800233120C2B
:10076C001A7007F12C0303211846FFF7BDFEF22087
:10077C00FFF7A0FE002387F8283007F1280301219A
:10078C001846FFF7B1FE2620FFF794FE012387F8E9
:10079C00243007F1240301211846FFF7A5FEE020C1
:1007AC00FFF788FE204B07F114040FCB07C42380FE
:1007BC0002341B0C237007F114030F211846FFF7AA
:1007CC0093FEE120FFF776FE184B3C1D0FCB07C4C0
:1007DC00238002341B0C23703B1D0F211846FFF79E
:1007EC0083FE1120FFF766FE782000F067FD2920BC
:1007FC00FFF760FE3620FFF75DFE48233B703B465B
:10080C0001211846FFF770FEFFF734FE00BF6C376E
:10081C00BD4690BDC4280008CC280008D02800088C
:10082C0064031281D4280008D8280008E82800089E
:10083C0080B584B000AF0346FB800B46BB801346EB
:10084C007B80FB88EF2B20D8BB88B3F5A07F1CD214
:10085C00FFF704FEFB8801339AB2BB8801339BB2CD
:10086C00B988F888FFF76EFE7B881B0A9BB2DBB257
:10087C003B737B88DBB27B7307F10C0302211846B8
:10088C00FFF732FEFFF7F6FD00E000BF1037BD4664
:10089C0080BD82B080B588B000AFFB620346FB80A0
:1008AC000B46BB801346FB7097F82C301A46FB881E
:1008BC0013449BB2013B9AB297F82D301946BB8872
:1008CC000B449BB2013B9BB2B988F888FFF73AFE08
:1008DC000023FB6141E03A6BFB78203B97F82D102D
:1008EC0001FB03F31946FB690B445B0013441B88A3
:1008FC007B610023BB6127E07A69BB6902FA03F3D1
:10090C0003F40043002B0ED0BB8E1B0A9BB2DBB250
:10091C003B74BB8EDBB27B7407F1100302211846CB
:10092C00FFF7E2FD0DE03B8F1B0A9BB2DBB23B7382
:10093C003B8FDBB27B7307F10C0302211846FFF7E8
:10094C00D3FDBB690133BB6197F82C301A46BB69E8
:10095C009342D1D3FB690133FB6197F82D301A46D2
:10096C00FB699342B7D300BF00BF2037BD46BDE83B
:10097C00804002B0704782B080B586B004AF3A6058
:10098C007B610346FB800B46BB80FFF767FD2EE0C7
:10099C00FB883A7D1344EF2B14DD0023FB807B7D19
:1009AC001A46BB881344BB80BB887A7D1344B3F5CD
:1009BC00A07F21DA3B681B78202B03D13B680133E5
:1009CC003B6014E03B681A78B988F8883B8C02933A
:1009DC00BB8B0193BB6900937B69FFF75AFF3B7D8F
:1009EC001A46FB881344FB803B6801333B603B6831
:1009FC001B78002BCCD100E000BFFFF73BFD00BF04
:100A0C000837BD46BDE8804002B0704790B585B050
:100A1C0000AF0446084611461A462346FB8003469F
:100A2C00BB800B467B8013463B80FB88EF2B53D857
:100A3C00BB88B3F5A07F4FD2FA887B881344F02B88
:100A4C0003DDFB88C3F1F0037B80BA883B88134439
:100A5C00B3F5A07F03DDBB88C3F5A0733B80FFF724
:100A6C00FDFCFA887B8813449BB2013B9CB2BA888C
:100A7C003B8813449BB2013B9BB2B988F888224651
:100A8C00FFF760FD3B8C1B0A9BB2DBB23B733B8CCC
:100A9C00DBB27B7301220221114800F0A5FE3B88DA
:100AAC00BB8013E07B88FB800AE007F10C014FF060
:100ABC00FF3302220B4801F0BAFCFB88013BFB80A0
:100ACC00FB88002BF1D1BB88013BBB80BB88002B82
:100ADC00E8D1FFF7CFFC00E000BF1437BD4690BD56
:100AEC00000402404000002080B584B002AF0346F1
:100AFC00FB80FB8800934FF4A073F02200210020B0
:100B0C00FFF784FF00BF0837BD4680BD80B582B0BB
:100B1C0000AF0346FB71FFF7A1FCFB79002B01D062
:100B2C00212300E020231846FFF7C4FCFFF7A2FCAA
:100B3C0000BF0837BD4680BD80B500AF01224FF421
:100B4C008061024800F050FE00BF80BD00000240F2
:100B5C0080B500AFFFF78EFCFFF7EEFFFFF73AFD15
:100B6C0000BF80BD80B586B004AF0020FFF7BCFF8E
:100B7C0000237B6013E07B689BB24FF4784200212A
:100B8C001846FFF755FE7B689BB24FF4784240F253
:100B9C003F111846FFF74CFE7B6801337B607B6886
:100BAC00EF2BE8DD00233B6012E03B689BB24FF477
:100BBC00784219460020FFF73BFE3B689BB24FF48E
:100BCC0078421946EF20FFF733FE3B6801333B6058
:100BDC003B68B3F5A07FE8DB4FF47A7000F06EFB56
:100BEC00954B002202924FF4FC6201925A680092DB
:100BFC001B68924A1E210020FFF7BDFE8E4B00227F
:100C0C0002924FF4FC6201925A6800921B688C4A63
:100C1C003C210020FFF7AFFE874B002202924FF4DD
:100C2C00FC6201925A6800921B68864A5A21002085
:100C3C00FFF7A1FE844B002202924FF478420192FE
:100C4C005A6800921B68814A78210020FFF793FEB6
:100C5C004FF47A6000F032FB0020FFF745FF7C4B2D
:100C6C00002202924FF4784201925A6800921B685B
:100C7C00784A00210020FFF77EFE6F4B0022029283
:100C8C001F2201925A6800921B68734A1E21002091
:100C9C00FFF771FE6C4B002202924FF4FC62019242
:100CAC005A6800921B686D4A54210020FFF763FEBE
:100CBC004FF47A7000F002FB0120FFF727FF4FF48E
:100CCC007A7000F0FBFA0020FFF720FF41F2883029
:100CDC0000F0F4FA4FF6FF70FFF706FF564B4FF695
:100CEC00FF720292002201925A6800921B685C4AC1
:100CFC0000210020FFF73FFE4FF4FA7000F0DEFAFF
:100D0C001F20FFF7F1FE4C4B1F2202920022019292
:100D1C005A6800921B68534A00210020FFF72BFEF3
:100D2C004FF4FA7000F0CAFA4FF47840FFF7DCFE8B
:100D3C00414B4FF478420292002201925A68009281
:100D4C001B68494A00210020FFF715FE4FF4FA708A
:100D5C0000F0B4FA4FF4FC60FFF7C6FE364B4FF4CC
:100D6C00FC620292002201925A6800921B683F4A70
:100D7C0000210020FFF7FFFD4FF4FA7000F09EFAFF
:100D8C0040F2FF70FFF7B0FE2B4B40F2FF72029265
:100D9C00002201925A6800921B68354A00210020FB
:100DAC00FFF7E9FD4FF4FA7000F088FA4FF61F00D8
:100DBC00FFF79AFE204B4FF61F020292002201927F
:100DCC005A6800921B682B4A00210020FFF7D3FDC4
:100DDC004FF4FA7000F072FA4FF6E070FFF784FEF1
:100DEC00154B4FF6E0720292002201925A68009263
:100DFC001B68214A00210020FFF7BDFD4FF4FA705B
:100E0C0000F05CFA0020FFF76FFE0B4B4FF6FF7201
:100E1C000292002201925A6800921B68174A002124
:100E2C000020FFF7A8FD4FF4FA7000F047FA00BF5E
:100E3C000837BD4680BD00BF08000020F828000818
:100E4C00082900081C29000810000020302900087F
:100E5C0000000020442900085429000868290008D3
:100E6C007C29000880290008882900088C290008A2
:100E7C00942900089C290008A4290008AC29000822
:100E8C0080B500AF00F0ABF900F00AF800F084F880
:100E9C0000F04CF8FFF75CFEFFF764FEFCE7000087
:100EAC0080B592B000AF07F114033422002118462C
:100EBC0001F0CAFC3B4600221A605A609A60DA6064
:100ECC001A61194B1B6823F4C053174A43F400638F
:100EDC00136002237B6101233B6210237B6200239E
:100EEC00BB6307F11403184600F096FC0346002B75
:100EFC0001D000F0A5F80F233B6001237B60802319
:100F0C00BB600023FB6000233B613B46002118467D
:100F1C0000F0B2FF0346002B01D000F091F800BFA7
:100F2C004837BD4680BD00BF0070004080B500AFA3
:100F3C00174B184A1A60164B4FF482725A60144BB6
:100F4C0000229A60124B0022DA60114B00221A61C7
:100F5C000F4B00225A610E4B4FF400729A610C4BEE
:100F6C002822DA610A4B00221A62094B00225A62CB
:100F7C00074B00229A62064B0A22DA62044801F0FF
:100F8C00CDF90346002B01D000F05AF800BF80BD0C
:100F9C00400000200030014080B588B000AF07F160
:100FAC000C0300221A605A609A60DA601A61214BB5
:100FBC00DB69204A43F00103D3611E4BDB6903F06C
:100FCC000103BB60BB681B4BDB691A4A43F002038D
:100FDC00D361184BDB6903F002037B607B68002252
:100FEC001021154800F000FC00220321134800F0EA
:100FFC00FBFB1023FB6001233B6100237B6100237F
:10100C00BB6107F10C0319460B4800F05DFA032392
:10101C00FB6001233B6100237B610023BB6107F173
:10102C000C031946054800F04FFA00BF2037BD46A7
:10103C0080BD00BF003802400000024000040240A6
:10104C0080B400AF72B600BF00BFFDE780B485B0BE
:10105C0000AF144B5B6A134A43F000435362114BCD
:10106C005B6A03F00043FB60FB680E4B1B6A0D4A86
:10107C0043F0010313620B4B1B6A03F00103BB60CB
:10108C00BB68084B5B6A074A43F080535362054BBD
:10109C005B6A03F080537B607B6800BF1437BD46EE
:1010AC0080BC70470038024080B58AB000AF7860D1
:1010BC0007F1140300221A605A609A60DA601A6110
:1010CC007B681B68174A934227D1174B1B6A164A39
:1010DC0043F480531362144B1B6A03F480533B613B
:1010EC003B69114BDB69104A43F00103D3610E4B92
:1010FC00DB6903F00103FB60FB68E0237B610223E7
:10110C00BB610023FB6103233B6205237B6207F178
:10111C0014031946054800F0D7F900BF2837BD461F
:10112C0080BD00BF0030014000380240000002408A
:10113C0080B400AF00BFFDE780B400AF00BFFDE797
:10114C0080B400AF00BFFDE780B400AF00BFFDE787
:10115C0080B400AF00BFFDE780B400AF00BFBD4658
:10116C0080BC704780B400AF00BFBD4680BC7047E8
:10117C0080B400AF00BFBD4680BC704780B500AFE7
:10118C0000F080F800BF80BD80B400AF00BFBD464A
:10119C0080BC7047FFF7F8FF0B480C490C4A002342
:1011AC0002E0D458C4500433C4188C42F9D3094A11
:1011BC00094C002301E013600432A242FBD301F07E
:1011CC004BFBFFF75DFE7047000000202400002061
:1011DC00F4510008240000209C000020FEE780B59C
:1011EC0082B000AF0023FB71032000F039F90F200F
:1011FC0000F00EF80346002B02D00123FB7101E036
:10120C00FFF724FFFB7918460837BD4680BD000068
:10121C0080B584B000AF78600023FB73164B1B685D
:10122C00002B22D0154B1A68134B1B684FF47A71A4
:10123C00B1FBF3F3B2FBF3F3184600F038F90346B5
:10124C00002B0FD17B680F2B09D8002279684FF047
:10125C00FF3000F010F90A4A7B68136007E00123A5
:10126C00FB7304E00123FB7301E00123FB73FB7BA5
:10127C0018461037BD4680BD200000201800002005
:10128C001C00002080B400AF054B1A68054B1B688E
:10129C001344034A136000BFBD4680BC704700BFB7
:1012AC00980000202000002080B400AF024B1B6887
:1012BC001846BD4680BC70479800002080B584B0AD
:1012CC0000AF7860FFF7F0FFB8607B68FB60FB68ED
:1012DC00B3F1FF3F04D0094B1B68FA681344FB6061
:1012EC0000BFFFF7E1FF0246BB68D31AFA689A42C7
:1012FC00F7D800BF00BF1037BD4680BD20000020CE
:10130C0080B485B000AF78607B6803F00703FB60A6
:10131C000C4BDB68BB60BA684FF6FF031340BB6035
:10132C00FB681A02BB68134343F0BF6343F40033FA
:10133C00BB60044ABB68D36000BF1437BD4680BC99
:10134C00704700BF00ED00E080B400AF044BDB68D9
:10135C001B0A03F007031846BD4680BC704700BF4C
:10136C0000ED00E080B483B000AF03463960FB7140
:10137C0097F90730002B0ADB3B68DAB20C4997F976
:10138C0007301201D2B20B4483F800230AE03B6809
:10139C00DAB20849FB7903F00F03043B1201D2B215
:1013AC000B441A7600BF0C37BD4680BC704700BF9B
:1013BC0000E100E000ED00E080B489B000AFF8601F
:1013CC00B9607A60FB6803F00703FB61FB69C3F14A
:1013DC000703042B28BF0423BB61FB690433062BD2
:1013EC0002D9FB69033B00E000237B614FF0FF3225
:1013FC00BB6902FA03F3DA43BB681A407B699A4073
:10140C004FF0FF317B6901FA03F3D9437B680B4042
:10141C00134318462437BD4680BC704780B582B054
:10142C0000AF78607B68013BB3F1807F01D301236F
:10143C000FE00A4A7B68013B53600F214FF0FF30ED
:10144C00FFF790FF054B00229A60044B07221A60AD
:10145C00002318460837BD4680BD00BF10E000E0F1
:10146C0080B582B000AF78607868FFF749FF00BFA5
:10147C000837BD4680BD80B586B000AF0346B96065
:10148C007A60FB7300237B61FFF75EFF78617A68FB
:10149C00B9687869FFF790FF024697F90F3011464B
:1014AC001846FFF75FFF00BF1837BD4680BD80B5FB
:1014BC0082B000AF78607868FFF7B0FF034618463B
:1014CC000837BD4680BD000080B487B000AF78609F
:1014DC00396000237B610023FB6000233B6160E1EA
:1014EC003B681A6801217B6901FA03F31340FB6026
:1014FC00FB68002B00F052813B685B6803F0030330
:10150C00012B05D03B685B6803F00303022B30D141
:10151C007B689B683B617B695B00032202FA03F3E7
:10152C00DB433A6913403B613B68DA687B695B00DB
:10153C0002FA03F33A6913433B617B683A699A6098
:10154C007B685B683B6101227B6902FA03F3DB4336
:10155C003A6913403B613B685B681B0903F001026D
:10156C007B6902FA03F33A6913433B617B683A697E
:10157C005A603B685B6803F00303032B17D07B684E
:10158C00DB683B617B695B00032202FA03F3DB43FC
:10159C003A6913403B613B689A687B695B0002FACD
:1015AC0003F33A6913433B617B683A69DA603B6841
:1015BC005B6803F00303022B23D17B69DA087B6899
:1015CC00083253F822303B617B6903F007039B0020
:1015DC000F2202FA03F3DB433A6913403B613B6889
:1015EC001A697B6903F007039B0002FA03F33A695B
:1015FC0013433B617B69DA087B680832396943F82D
:10160C0022107B681B683B617B695B00032202FA3A
:10161C0003F3DB433A6913403B613B685B6803F0BF
:10162C0003027B695B0002FA03F33A6913433B61E3
:10163C007B683A691A603B685B6803F44033002BA3
:10164C0000F0AC805E4B1B6A5D4A43F001031362F1
:10165C005B4B1B6A03F00103BB60BB68594A7B6997
:10166C009B08023352F823303B617B6903F0030380
:10167C009B000F2202FA03F3DB433A6913403B61F0
:10168C007B68514A934225D07B68504A93421FD0C5
:10169C007B684F4A934219D07B684E4A934213D0D1
:1016AC007B684D4A93420DD07B684C4A934207D0DD
:1016BC007B684B4A934201D106230CE007230AE0D6
:1016CC00052308E0042306E0032304E0022302E0E0
:1016DC00012300E000237A6902F003029200934098
:1016EC003A6913433B6137497B699B0802333A697A
:1016FC0041F823203B4B9B683B61FB68DB433A6919
:10170C0013403B613B685B6803F48013002B03D0F0
:10171C003A69FB6813433B61324A3B699360314B36
:10172C00DB683B61FB68DB433A6913403B613B6818
:10173C005B6803F40013002B03D03A69FB68134376
:10174C003B61284A3B69D360264B5B683B61FB6875
:10175C00DB433A6913403B613B685B6803F400333D
:10176C00002B03D03A69FB6813433B611D4A3B696C
:10177C0053601C4B1B683B61FB68DB433A691340AD
:10178C003B613B685B6803F48033002B03D03A6900
:10179C00FB6813433B61134A3B6913607B6901335C
:1017AC007B613B681A687B6922FA03F3002B7FF498
:1017BC0097AE00BF00BF1C37BD4680BC704700BF52
:1017CC0000380240000001400000024000040240CA
:1017DC0000080240000C02400010024000140240BD
:1017EC00001802400004014080B483B000AF786060
:1017FC000B467B8013467B707B78002B03D07A885A
:10180C007B689A6103E07B881A047B689A6100BF4D
:10181C000C37BD4680BC704780B588B000AF78608F
:10182C007B68002B01D101231DE3944B9B6803F0D3
:10183C000C03BB61914B9B6803F480337B617B6829
:10184C001B6803F00103002B7BD0BB69082B06D06F
:10185C00BB690C2B0FD17B69B3F5803F0BD1874B48
:10186C001B6803F40033002B6AD07B685B68002B89
:10187C0066D10123F7E27B685B68012B06D17F4BB5
:10188C001B687E4A43F4803313602DE07B685B68F1
:10189C00002B0CD1794B1B68784A23F480331360EE
:1018AC00764B1B68754A23F4802313601CE07B681D
:1018BC005B68052B0CD1714B1B68704A43F4802379
:1018CC0013606E4B1B686D4A43F4803313600BE05E
:1018DC006A4B1B68694A23F480331360674B1B689F
:1018EC00664A23F4802313607B685B68002B13D05B
:1018FC00FFF7DAFC386108E0FFF7D6FC02463B69DB
:10190C00D31A642B01D90323ADE25C4B1B6803F49F
:10191C000033002BF0D014E0FFF7C6FC386108E070
:10192C00FFF7C2FC02463B69D31A642B01D903238F
:10193C0099E2524B1B6803F40033002BF0D100E00A
:10194C0000BF7B681B6803F00203002B5AD0BB69F5
:10195C00042B05D0BB690C2B19D17B69002B16D13C
:10196C00464B1B6803F00203002B05D07B68DB6839
:10197C00012B01D0012376E2404B5B6823F4F85233
:10198C007B681B691B023D4913434B603AE07B6843
:10199C00DB68002B20D03A4B01221A60FFF784FC45
:1019AC00386108E0FFF780FC02463B69D31A022B32
:1019BC0001D9032357E2314B1B6803F00203002BC0
:1019CC00F0D02E4B5B6823F4F8527B681B691B022A
:1019DC002A4913434B6015E0294B00221A60FFF78C
:1019EC0063FC386108E0FFF75FFC02463B69D31AE1
:1019FC00022B01D9032336E2204B1B6803F00203B0
:101A0C00002BF0D17B681B6803F01003002B00F057
:101A1C00B880BB69002B70D1184B1B6803F40073A2
:101A2C00002B05D07B689B69002B01D101231AE2A6
:101A3C007B681A6A114B5B6803F460439A4221D9A4
:101A4C007B681B6A184600F009FC0346002B01D08A
:101A5C00012308E2094B5B6823F460427B681B6A34
:101A6C00064913434B60054B5B6823F07F427B6850
:101A7C00DB691B06014913434B6020E00038024030
:101A8C0000004742994B5B6823F460427B681B6AF9
:101A9C00964913434B60954B5B6823F07F427B6800
:101AAC00DB691B06914913434B607B681B6A184624
:101ABC0000F0D4FB0346002B01D00123D3E17B685B
:101ACC001B6A5B0B01334FF4004202FA03F3874AA3
:101ADC009268120902F00F0285498A5CD340854A4C
:101AEC001360854B1B681846FFF792FB0346FB738C
:101AFC00FB7B002B45D0FB7BB5E17B689B69002B06
:101B0C0029D07E4B01221A60FFF7CEFB386108E02A
:101B1C00FFF7CAFB02463B69D31A022B01D90323F8
:101B2C00A1E1724B1B6803F40073002BF0D06F4BD8
:101B3C005B6823F460427B681B6A6C4913434B60FF
:101B4C006A4B5B6823F07F427B68DB691B06674945
:101B5C0013434B6015E0694B00221A60FFF7A4FB9E
:101B6C00386108E0FFF7A0FB02463B69D31A022B51
:101B7C0001D9032377E15D4B1B6803F40073002B41
:101B8C00F0D17B681B6803F00803002B30D07B6816
:101B9C005B69002B16D05A4B01221A60FFF784FBAD
:101BAC00386108E0FFF780FB02463B69D31A022B31
:101BBC0001D9032357E14D4B5B6B03F00203002B60
:101BCC00F0D015E04E4B00221A60FFF76DFB386128
:101BDC0008E0FFF769FB02463B69D31A022B01D9D7
:101BEC00032340E1414B5B6B03F00203002BF0D16C
:101BFC007B681B6803F00403002B00F0B580002306
:101C0C00FB773A4B5B6A03F08053002B0DD1374BBB
:101C1C005B6A364A43F080535362344B5B6A03F081
:101C2C008053BB60BB680123FB77364B1B6803F406
:101C3C008073002B18D1334B1B68324A43F48073EA
:101C4C001360FFF731FB386108E0FFF72DFB02460C
:101C5C003B69D31A642B01D9032304E1294B1B687C
:101C6C0003F48073002BF0D07B689B68012B06D1AA
:101C7C001E4B5B6B1D4A43F4807353632DE07B68F2
:101C8C009B68002B0CD1194B5B6B184A23F48073A7
:101C9C005363164B5B6B154A23F4806353631CE050
:101CAC007B689B68052B0CD1104B5B6B0F4A43F484
:101CBC00806353630D4B5B6B0C4A43F4807353632B
:101CCC000BE00A4B5B6B094A23F480735363074B9D
:101CDC005B6B064A23F4806353637B689B68002B21
:101CEC0024D0FFF7E1FA386119E000BF0038024058
:101CFC00D4510008180000201C000020200047428E
:101D0C008006474200700040FFF7CEFA02463B695E
:101D1C00D31A41F28832934201D90323A3E0544BE6
:101D2C005B6B03F40073002BEED014E0FFF7BCFAEE
:101D3C0038610AE0FFF7B8FA02463B69D31A41F260
:101D4C008832934201D903238DE0494B5B6B03F43A
:101D5C000073002BEED1FB7F012B05D1444B5B6A4A
:101D6C00434A23F0805353627B685B6A002B79D023
:101D7C00BB690C2B56D07B685B6A022B3BD13D4B6D
:101D8C0000221A60FFF790FA386108E0FFF78CFA2E
:101D9C0002463B69D31A022B01D9032363E0344B6F
:101DAC001B6803F00073002BF0D1314B9B6823F4BC
:101DBC007D027B68996A7B68DB6A19437B681B6BC5
:101DCC000B432B4913438B602A4B01221A60FFF7FC
:101DDC006BFA386108E0FFF767FA02463B69D31AE1
:101DEC00022B01D903233EE0214B1B6803F0007347
:101DFC00002BF0D036E01F4B00221A60FFF754FA8C
:101E0C00386108E0FFF750FA02463B69D31A022BFF
:101E1C0001D9032327E0164B1B6803F00073002B3A
:101E2C00F0D11FE07B685B6A012B01D101231AE022
:101E3C000F4B9B687B617B6903F480327B689B6AE8
:101E4C009A420DD17B6903F470127B68DB6A9A426B
:101E5C0006D17B6903F440027B681B6B9A4201D06C
:101E6C00012300E0002318462037BD4680BD00BF8B
:101E7C00003802406000474280B584B000AF786003
:101E8C0039607B68002B01D101231AE18F4B1B6851
:101E9C0003F001033A689A4219D93B68012B05D12A
:101EAC008A4B1B68894A43F004031360874B1B68F9
:101EBC0023F0010285493B6813430B60834B1B687D
:101ECC0003F001033A689A4201D00123F9E07B68E0
:101EDC001B6803F00203002B08D07D4B9B6823F09A
:101EEC00F0027B689B687A4913438B607B681B68A4
:101EFC0003F00103002B00F08E807B685B68022BE3
:101F0C0007D1734B1B6803F40033002B21D1012341
:101F1C00D7E07B685B68032B07D16D4B1B6803F024
:101F2C000073002B15D10123CBE07B685B68012B80
:101F3C0007D1674B1B6803F00203002B09D1012367
:101F4C00BFE0634B1B6803F40073002B01D101232A
:101F5C00B7E05F4B9B6823F003027B685B685C49CE
:101F6C0013438B60FFF7A0F9F8607B685B68022B6A
:101F7C0012D10AE0FFF798F90246FB68D31A41F236
:101F8C008832934201D903239BE0514B9B6803F0A9
:101F9C000C03082BEED13EE07B685B68032B12D15F
:101FAC000AE0FFF781F90246FB68D31A41F2883246
:101FBC00934201D9032384E0454B9B6803F00C0347
:101FCC000C2BEED127E07B685B68012B1DD10AE05E
:101FDC00FFF76AF90246FB68D31A41F28832934242
:101FEC0001D903236DE03A4B9B6803F00C03042BDF
:101FFC00EED110E0FFF758F90246FB68D31A41F214
:10200C008832934201D903235BE0314B9B6803F088
:10201C000C03002BEED12D4B1B6803F001033A6827
:10202C009A4219D23B68012B05D1284B1B68274AD1
:10203C0043F004031360254B1B6823F00102234972
:10204C003B6813430B60214B1B6803F001033A6898
:10205C009A4201D0012334E07B681B6803F004032F
:10206C00002B08D01A4B9B6823F4E0627B68DB687A
:10207C00174913438B607B681B6803F00803002B24
:10208C0009D0134B9B6823F460527B681B69DB00FF
:10209C000F4913438B6000F023F802460C4B9B68EE
:1020AC001B0903F00F030B49CB5C22FA03F30A4A1A
:1020BC0013600A4B1B681846FFF7AAF80346FB721D
:1020CC00FB7A18461037BD4680BD00BF003C02406D
:1020DC0000380240D4510008180000201C000020D9
:1020EC002DE9B04F8EB000AF584B9B68FB62FB6A7A
:1020FC0003F00C030C2B0DD00C2B00F29280042B54
:10210C0002D0082B03D08CE0514B3B6397E0514B32
:10211C003B6394E0FB6A9B0C03F00F024E4B9B5C01
:10212C00BB62FB6A9B0D03F0030301337B62474BDD
:10213C009B6803F48033002B21D0BB6A0022BB6167
:10214C00FA61444BD7E906894A4603FB02F20023A5
:10215C00444604FB03F313443E4A4446A4FB0201E9
:10216C000B4419467B6A00223B617A61D7E9042350
:10217C00FDF7FEFF02460B4613467B634EE0BB6A3F
:10218C0000229A46934652465B464FF000004FF0B1
:10219C000001590141EAD261500102460B46B2EBF3
:1021AC000A0863EB0B094FF000024FF000034FEAF3
:1021BC00891343EA98634FEA8812B2EB080463EB85
:1021CC0009054FF000024FF00003EB0043EA547393
:1021DC00E20014461D4614EB0A033B6045EB0B036F
:1021EC007B604FF000024FF00003D7E90045294611
:1021FC008B0220462946044643EA945301468A0240
:10220C00104619467B6A0022BB60FA60D7E90223AC
:10221C00FDF7AEFF02460B4613467B637B6B3B63BD
:10222C000DE00A4B5B685B0B03F007033B623B6AF8
:10223C0001334FF4004202FA03F33B6300BF3B6BE4
:10224C0018463837BD46BDE8B08F00BF0038024095
:10225C000024F40000366E01C851000880B487B029
:10226C0000AF786000233B61294B9B6803F0F003BF
:10227C00002B2CD1264B5B6A03F08053002B05D02E
:10228C00244B1B6803F4C0537B6116E0204B5B6A44
:10229C001F4A43F0805353621D4B5B6A03F080531B
:1022AC00FB60FB681B4B1B6803F4C0537B61184B32
:1022BC005B6A174A23F0805353627B69B3F5C05FA6
:1022CC0005D17B68B3F5404F01D101233B613B69DC
:1022DC00012B05D1104B1B680F4A43F0040313600C
:1022EC000D4B1B6823F001020B493B6913430B6038
:1022FC00094B1B6803F001033A699A4201D0012390
:10230C0000E0002318461C37BD4680BC704700BF58
:10231C000038024000700040003C024080B582B0A2
:10232C0000AF78607B68002B01D101237BE07B68D8
:10233C005B6A002B08D17B685B68B3F5827F09D0A0
:10234C007B680022DA6105E07B6800221A617B68F9
:10235C0000225A617B6800229A627B6893F85130A4
:10236C00DBB2002B06D17B68002283F85020786802
:10237C00FEF79AFE7B68022283F851207B681B686B
:10238C001A687B681B6822F040021A607B685B68E5
:10239C0003F482727B689B6803F404431A437B68E2
:1023AC00DB6803F400631A437B681B6903F00203C8
:1023BC001A437B685B6903F001031A437B689B69D2
:1023CC0003F400731A437B68DB6903F038031A4388
:1023DC007B681B6A03F0800342EA03017B689B6AFB
:1023EC0003F400527B681B680A431A607B689B6984
:1023FC001B0C03F004017B685B6A03F010027B6822
:10240C001B680A435A607B681B68DA697B681B6827
:10241C0022F40062DA617B6800225A657B68012233
:10242C0083F85120002318460837BD4680BD80B57F
:10243C0088B000AFF860B9603B601346FB800023A6
:10244C00FB77FB6893F85030012B01D102232DE16F
:10245C00FB68012283F85020FEF726FFB861FB8849
:10246C00FB82FB6893F85130DBB2012B02D00223C4
:10247C00FB7716E1BB68002B02D0FB88002B02D146
:10248C000123FB770DE1FB68032283F85120FB68E5
:10249C0000225A65FB68BA681A63FB68FA889A8648
:1024AC00FB68FA88DA86FB6800229A63FB680022D4
:1024BC009A87FB680022DA87FB6800225A64FB6863
:1024CC0000221A64FB689B68B3F5004F0FD1FB68C0
:1024DC001B681A68FB681B6822F040021A60FB68D4
:1024EC001B681A68FB681B6842F480421A60FB6820
:1024FC001B681B6803F04003402B07D0FB681B686C
:10250C001A68FB681B6842F040021A60FB68DB68C3
:10251C00B3F5006F4FD1FB685B68002B02D0FB8AD0
:10252C00012B42D1FB681B6B1A88FB681B68DA60B5
:10253C00FB681B6B9A1CFB681A63FB68DB8E9BB2F7
:10254C00013B9AB2FB68DA862FE0FB681B689B683C
:10255C0003F00203022B12D1FB681B6B1A88FB6879
:10256C001B68DA60FB681B6B9A1CFB681A63FB68C0
:10257C00DB8E9BB2013B9AB2FB68DA8615E0FEF764
:10258C0093FE0246BB69D31A3A689A4203D83B6859
:10259C00B3F1FF3F02D13B68002B06D10323FB773D
:1025AC00FB68012283F851207BE0FB68DB8E9BB239
:1025BC00002BCAD150E0FB685B68002B02D0FB8A71
:1025CC00012B44D1FB681A6BFB681B680C33127827
:1025DC001A70FB681B6B5A1CFB681A63FB68DB8E5A
:1025EC009BB2013B9AB2FB68DA8630E0FB681B6851
:1025FC009B6803F00203022B13D1FB681A6BFB6878
:10260C001B680C3312781A70FB681B6B5A1CFB6826
:10261C001A63FB68DB8E9BB2013B9AB2FB68DA86CD
:10262C0015E0FEF741FE0246BB69D31A3A689A429E
:10263C0003D83B68B3F1FF3F02D13B68002B06D1B6
:10264C000323FB77FB68012283F8512029E0FB6808
:10265C00DB8E9BB2002BC9D1BA693968F86800F0DF
:10266C00B1F80346002B02D0FB6820225A65FB68A8
:10267C009B68002B0AD100233B61FB681B68DB685D
:10268C003B61FB681B689B683B613B69FB685B6D4E
:10269C00002B02D00123FB7703E0FB68012283F8B7
:1026AC005120FB68002283F85020FB7F184620370E
:1026BC00BD4680BD80B588B000AFF860B9603B60A6
:1026CC001346FB71FEF7F0FD0246BB6A9B1A3A6893
:1026DC001344FB61FEF7E8FDB861394B1B685B01E5
:1026EC001B0DFA6902FB03F37B6154E03B68B3F109
:1026FC00FF3F50D0FEF7D8FD0246BB69D31AFA69EA
:10270C009A4202D9FB69002B3DD1FB681B685A68C1
:10271C00FB681B6822F0E0025A60FB685B68B3F54B
:10272C00827F11D1FB689B68B3F5004F04D0FB6826
:10273C009B68B3F5806F07D1FB681B681A68FB6850
:10274C001B6822F040021A60FB689B6AB3F5005FBD
:10275C000FD1FB681B681A68FB681B6822F40052D7
:10276C001A60FB681B681A68FB681B6842F400520D
:10277C001A60FB68012283F85120FB68002283F861
:10278C005020032317E07B69002B01D10023FB6150
:10279C007B69013B7B61FB681B689A68BB681340D3
:1027AC00BA689A420CBF01230023DBB21A46FB79AC
:1027BC009A429BD1002318462037BD4680BD00BFEE
:1027CC001800002080B588B002AFF860B9607A605C
:1027DC001B4B1B681B4AA2FB03235B0D4FF47A7245
:1027EC0002FB03F37B61FB685B68B3F5827F12D15C
:1027FC007B680093BB6800228021F868FFF75AFFC2
:10280C000346002B16D0FB685B6D43F02002FB687F
:10281C005A6503230FE07B69002B0AD07B69013BCF
:10282C007B61FB681B689B6803F08003802BF2D0F4
:10283C0000E000BF002318461837BD4680BD00BF1E
:10284C0018000020819F5E1603460244934200D17B
:10285C00704703F8011BF9E770B500260C4D0D4CC1
:10286C00641BA410A64209D100F01AF800260A4DE8
:10287C000A4C641BA410A64205D170BD55F8043B4C
:10288C0098470136EEE755F8043B98470136F2E7D6
:10289C00EC510008EC510008EC510008F051000814
:1028AC00F8B500BFF8BC08BC9E467047F8B500BF31
:0828BC00F8BC08BC9E46704701
:1028C400392C00340200000000C13000850078007B
:1028D400088227000F312B0C0E084EF13707100326
:1028E4000E090000000E1403110731C148080F0C33
:1028F40031360F0048454C4C4F20574F524C442121
:102904002121210054484953204953204120544552
:10291400535420464F520000544845204E455720FA
:1029240054465420444953504C4159004920484F7F
:10293400504520495420574F524B53212100000049
:10294400466F6E745F377831302048454C4C4F00E9
:10295400466F6E745F31317831382048454C4C4FA6
:1029640000000000466F6E745F31367832362048BE
:10297400454C4C4F0000000000000000424C5545FF
:102984000000000052454400475245454E000000F7
:102994004359414E000000004D4147454E5441000B
:1029A40059454C4C4F570000424C41434B000000EA
:1029B4000000000000000000000000000000000013
:1029C40000000000001000100010001000100010A3
:1029D400000000100000000000280028002800006B
:1029E400000000000000000000000000002400249B
:1029F400007C00240048007C0048004800000000DF
:102A040000380054005000380014005400540038BA
:102A1400001000000020005400580030002800542A
:102A24000014000800000000001000280028001016
:102A3400003400480048003400000000001000107A
:102A44000010000000000000000000000000000072
:102A5400000800100020002000200020002000209A
:102A640000100008002000100008000800080008FA
:102A74000008000800100020001000380010002892
:102A84000000000000000000000000000000000042
:102A940000100010007C0010001000000000000076
:102AA4000000000000000000000000000000001012
:102AB40000100010000000000000000000000038BA
:102AC4000000000000000000000000000000000002
:102AD40000000000000000100000000000080008D2
:102AE4000010001000100010002000200000000062
:102AF40000380044004400540044004400440038BA
:102B04000000000000100030005000100010001001
:102B140000100010000000000038004400440004CD
:102B2400000800100020007C000000000038004471
:102B340000040018000400040044003800000000F1
:102B440000080018002800280048007C000800083D
:102B540000000000007C00400040007800040004F5
:102B640000440038000000000038004400400078B1
:102B7400004400440044003800000000007C0004CD
:102B840000080010001000200020002000000000B9
:102B94000038004400440038004400440044003835
:102BA400000000000038004400440044003C0004DD
:102BB4000044003800000000000000000010000085
:102BC40000000000000000100000000000000000F1
:102BD40000000010000000000000001000100010B1
:102BE40000000000000C003000400030000C000029
:102BF40000000000000000000000007C0000007CD9
:102C04000000000000000000000000000060001848
:102C140000040018006000000000000000380044B8
:102C24000004000800100010000000100000000064
:102C340000380044004C0054005C00400040003860
:102C44000000000000100028002800280028007C54
:102C54000044004400000000007800440044007870
:102C640000440044004400780000000000380044A0
:102C740000400040004000400044003800000000D4
:102C840000700048004400440044004400480070C0
:102C940000000000007C00400040007C0040004038
:102CA4000040007C00000000007C004000400078F0
:102CB4000040004000400040000000000038004494
:102CC40000400040005C0044004400380000000064
:102CD400004400440044007C004400440044004498
:102CE4000000000000380010001000100010001058
:102CF4000010003800000000000400040004000478
:102D040000040004004400380000000000440048AF
:102D140000500060005000480048004400000000DB
:102D24000040004000400040004000400040007C63
:102D3400000000000044006C006C00540044004497
:102D44000044004400000000004400640064005497
:102D54000054004C004C00440000000000380044C3
:102D640000440044004400440044003800000000D3
:102D740000780044004400440078004000400040D3
:102D840000000000003800440044004400440044B3
:102D9400005400380004000000780044004400445B
:102DA4000078004800480044000000000038004457
:102DB4000040003000080004004400380000000017
:102DC400007C001000100010001000100010001013
:102DD4000000000000440044004400440044004457
:102DE400004400380000000000440044004400286F
:102DF40000280028001000100000000000440044D7
:102E0400005400540054006C002800280000000006
:102E14000044002800280010001000280028004466
:102E240000000000004400440028002800100010A6
:102E34000010001000000000007C000400080010D6
:102E4400001000200040007C00000000001800106A
:102E540000100010001000100010001000100018E6
:102E640000200020001000100010001000080008CE
:102E740000000000003000100010001000100010CE
:102E8400001000100010003000100028002800443A
:102E9400000000000000000000000000000000002E
:102EA400000000000000000000000000000000FE20
:102EB40000200010000000000000000000000000DE
:102EC400000000000000000000380044003C004402
:102ED400004C003400000000004000400058006432
:102EE400004400440064005800000000000000009A
:102EF4000038004400400040004400380000000056
:102F0400000400040034004C00440044004C00342D
:102F1400000000000000000000380044007C004075
:102F24000044003800000000000C0010007C001079
:102F3400001000100010001000000000000000004D
:102F44000034004C00440044004C00340004007879
:102F54000040004000580064004400440044004421
:102F640000000000001000000070001000100010AD
:102F7400001000100000000000100000007000109D
:102F84000010001000100010001000E0004000408D
:102F94000048005000600050004800440000000059
:102FA400007000100010001000100010001000103D
:102FB4000000000000000000007800540054005499
:102FC4000054005400000000000000000058006499
:102FD40000440044004400440000000000000000DD
:102FE400003800440044004400440038000000005D
:102FF40000000000005800640044004400640058CD
:1030040000400040000000000034004C0044004434
:10301400004C003400040004000000000058006468
:10302400004000400040004000000000000000009C
:10303400003800440030000800440038000000005C
:10304400002000200078002000200020002000182C
:10305400000000000000000000440044004400445C
:10306400004C003400000000000000000044004454
:1030740000280028002800100000000000000000C4
:10308400005400540054006C002800280000000084
:103094000000000000440028001000100028004434
:1030A4000000000000000000004400440028002844
:1030B400001000100010006000000000007C0008F8
:1030C400001000200040007C0000000000180010E8
:1030D4000010001000200020001000100010001844
:1030E400001000100010001000100010001000105C
:1030F400001000100030001000100010000800083C
:1031040000100010001000300000000000000074E7
:10311400004C00000000000000000000000000005F
:10312400000000000000000000000000000000009B
:10313400000000000000000000000000000000008B
:103144000000000C000C000C000C000C000C000C27
:10315400000C000C000C000C0000000C000C000023
:10316400000000000000001B001B001B001B001BD4
:10317400000000000000000000000000000000004B
:103184000000000000000000000080198019801970
:103194008019C07FC07F80190033C07FC07F003397
:1031A4000033003300330000000000000000001E64
:1031B400003F807580650074003C001E0007800598
:1031C400806580658075003F001E000400040000D7
:1031D4000000007000D840D8C0D880D90073000621
:1031E400000C801BC036C066C046C00680030000C9
:1031F400000000000000001E003F003300330033D5
:10320400001E000CC03CC066806380618063C03EC9
:10321400801C0000000000000000000C000C000CEA
:10322400000C000C00000000000000000000000082
:103234000000000000000000000000008000000109
:103244000003000600060004000C000C000C000C37
:10325400000C000C000400060006000300018000BE
:10326400002000100018000C000C000400060006EA
:1032740000060006000600060004000C000C0018FE
:10328400001000200000000C002D003F001E003341
:10329400000000000000000000000000000000002A
:1032A4000000000000000000000000000000000C0E
:1032B400000C000C000CC0FFC0FF000C000C000C44
:1032C400000C0000000000000000000000000000EE
:1032D40000000000000000000000000000000000EA
:1032E400000000000000000C000C000400040008B2
:1032F40000000000000000000000000000000000CA
:103304000000001E001E000000000000000000007D
:1033140000000000000000000000000000000000A9
:103324000000000000000000000000000000000C8D
:10333400000C000000000000000000030003000374
:103344000006000600060006000C000C000C000C31
:103354000018001800180000000000000000001E03
:10336400003F0033806180618061806D806D806189
:10337400806180610033003F001E000000000000F7
:1033840000000006000E001E00360026000600069F
:1033940000060006000600060006000600060000FF
:1033A400000000000000001E003F80738061806107
:1033B400800100030006000C001800300060807FCC
:1033C400807F0000000000000000001C003E00633D
:1033D40000630003000E000E000380018001806181
:1033E4008073003F001E0000000000000000000683
:1033F400000E000E001E001E001600360036006689
:10340400807F807F000600060006000000000000A8
:103414000000007F007F006000600060006E007F9D
:1034240080638001800180618073003F001E000082
:10343400000000000000001E003F80338061006037
:10344400006E007F80738061806180618033003F03
:10345400001E0000000000000000807F807F8001CB
:103464000003000300060006000C000C000C00081A
:103474000018001800180000000000000000001EE2
:10348400003F8063806180610021001E003F8061F5
:10349400806180618061003F001E00000000000028
:1034A4000000001E003F00738061806180618073B2
:1034B400803F801D800180610073003F001E00007A
:1034C4000000000000000000000000000000000CEC
:1034D400000C000000000000000000000000000CD0
:1034E400000C0000000000000000000000000000CC
:1034F40000000000000C000C0000000000000000B0
:103504000000000C000C000400040008000000008F
:103514000000000080008003000E003800600038C6
:10352400000E800380000000000000000000000086
:1035340000000000000000000000807F807F000089
:103544000000807F807F0000000000000000000079
:1035540000000000000000000000000000400070B7
:10356400001C000780010007001C007000400000E0
:1035740000000000000000000000001F803FC07138
:10358400C060C000C00180030007000E000C000CE6
:103594000000000C000C0000000000000000001EF1
:1035A400003F803180718063806F806D806D806F9B
:1035B400806700600032003E001C00000000000034
:1035C4000000000E000E001B001B001B001B8031BE
:1035D4008031803F803F8031C060C060C0600000A7
:1035E400000000000000007C007E006300630063B4
:1035F4000063007E007E0063806180618063007FE1
:10360400007E0000000000000000001E003F80312A
:1036140080610060006000600060006000608061A4
:103624008031003F001E0000000000000000007C0C
:10363400007F00638063806180618061806180615C
:10364400806100630063007E007C000000000000D5
:103654000000807F807F0060006000600060007F69
:10366400007F0060006000600060807F807F000059
:10367400000000000000807F807F00600060006028
:103684000060007F007F00600060006000600060F8
:1036940000600000000000000000001E003F8031B8
:1036A400806100600060006080638063806180618D
:1036B4008031803F001E0000000000000000806197
:1036C40080618061806180618061807F807F8061B2
:1036D4008061806180618061806100000000000081
:1036E4000000003F003F000C000C000C000C000C1C
:1036F400000C000C000C000C000C003F003F00000C
:103704000000000000008001800180018001800130
:103714008001800180018001806180618073003FAD
:10372400001E0000000000000000C0608061006313
:1037340000660066006C0078007C0066006600632A
:1037440080618061C0600000000000000000006033
:103754000060006000600060006000600060006065
:10376400006000600060807F807F00000000000037
:103774000000C071C071C07BC07AC06AC06AC06EEC
:10378400C064C060C060C060C060C060C060000051
:103794000000000000008071807180798079807958
:1037A400806D806D806D80658067806780678063D1
:1037B40080630000000000000000001E003F003392
:1037C40080618061806180618061806180618061ED
:1037D4000033003F001E0000000000000000007ED7
:1037E400007F80638061806180618063007F007EF0
:1037F40000600060006000600060000000000000E5
:103804000000001E003F00338061806180618061A0
:1038140080618061806580670033803F401E0000C6
:10382400000000000000007E007F806380618061F2
:103834008063007F007E00660063006380618061B6
:10384400C0600000000000000000000E001F803176
:10385400803100300038001E0007800380618061E1
:103864008031003F001E0000000000000000C0FF87
:10387400C0FF000C000C000C000C000C000C000C31
:10388400000C000C000C000C000C000000000000F8
:1038940000008061806180618061806180618061FD
:1038A40080618061806180618073003F001E000040
:1038B400000000000000C060C060C0608031803142
:1038C4008031001B001B001B001B000E000E000EAD
:1038D40000040000000000000000C0C0C0C0C0C060
:1038E400C0C0C0C0C0CC804C804C805E805280522E
:1038F4008073806180610000000000000000C0C08F
:10390400806080610033003B001E000C000C001E30
:10391400001F003B80718061C0C0000000000000F7
:103924000000C0C08061806100330033001E001EAF
:10393400000C000C000C000C000C000C000C00002F
:10394400000000000000803F803F8001000300036E
:103954000006000C000C0018001800300060807F86
:10396400807F000000000000000F000F000C000C1E
:10397400000C000C000C000C000C000C000C000CE3
:10398400000C000C000C000C000F000F00000018CD
:1039940000180018000C000C000C000C00060006B7
:1039A40000060006000300030003000000000000FE
:1039B400001E001E000600060006000600060006A3
:1039C40000060006000600060006000600060006C3
:1039D400001E001E0000000C000C001E001200332C
:1039E40000338061806100000000000000000000DE
:1039F40000000000000000000000000000000000C3
:103A040000000000000000000000000000000000B2
:103A14000000000000000000E0FF0000000000388B
:103A24000018000C0000000000000000000000006E
:103A34000000000000000000000000000000000082
:103A440000000000000000000000001F803F8061B3
:103A54008001801F803F80618063807FC0380000C8
:103A64000000000000000060006000600060006E64
:103A7400007F807380618061806180618073007FDA
:103A8400006E0000000000000000000000000000C4
:103A94000000001E003F8073806100600060806150
:103AA4008073003F001E0000000000000000800141
:103AB400800180018001801D803F8073806180616E
:103AC400806180618073803F801D000000000000E1
:103AD40000000000000000000000001E003F007312
:103AE4008061807F807F00608071003F001E000045
:103AF400000000000000C007C00F000C000C807F15
:103B0400807F000C000C000C000C000C000C000C5E
:103B1400000C000000000000000000000000000095
:103B2400801D803F807380618061806180618073CB
:103B3400803F801D80018063007F003E00000060A4
:103B4400006000600060006F807F80718061806130
:103B540080618061806180618061000000000000FC
:103B640000000006000600000000003E003E0006C3
:103B74000006000600060006000600060006000017
:103B8400000000000006000600000000003E003EA9
:103B940000060006000600060006000600060006F1
:103BA40000060046007E003C0000006000600060EB
:103BB4000060806100630066006C007C0076006336
:103BC40000638061C0600000000000000000003E4F
:103BD400003E000600060006000600060006000679
:103BE40000060006000600060006000000000000B3
:103BF4000000000000000000000080DDC0FFC0CE17
:103C0400C0CCC0CCC0CCC0CCC0CCC0CCC0CC0000DC
:103C14000000000000000000000000000000006F31
:103C2400807F80718061806180618061806180615A
:103C3400806100000000000000000000000000009F
:103C44000000001E003F807380618061806180619C
:103C54008073003F001E0000000000000000000010
:103C640000000000006E007F8073806180618061CD
:103C740080618073007F006E0060006000600060FF
:103C84000000000000000000801D803F8073806100
:103C94008061806180618073803F801D800180012C
:103CA40080018001000000000000000000000067A7
:103CB400803F0039003000300030003000300030E8
:103CC40000300000000000000000000000000000C0
:103CD4000000001E803F80610060007F803F800103
:103CE4008061007F001E0000000000000000000052
:103CF400000800180018007F007F00180018001842
:103D0400001800180018801F800F00000000000039
:103D140000000000000000000000806180618061FC
:103D240080618061806180618063807F803D00006C
:103D34000000000000000000000000000000C0605F
:103D4400803180318031001B001B001B000E000EEF
:103D54000006000000000000000000000000000059
:103D6400000080DD80DD80DD0055005500550077C2
:103D74000077002200220000000000000000000084
:103D8400000000000000806100330033001E000CBE
:103D9400000C001E003300338061000000000000AE
:103DA4000000000000000000806180618031003369
:103DB4000033001B001B001B000E000E000E001C35
:103DC400007C007000000000000000000000C07FC4
:103DD400C07F800100030006000C00180030C07F83
:103DE400C07F00000000000080038007000600067A
:103DF400000600060006000E001C001C000E000653
:103E04000006000600060006800780030006000680
:103E1400000600060006000600060006000600066E
:103E2400000600060006000600060006000600065E
:103E34000038003C000C000C000C000C000C000EC0
:103E440000070007000E000C000C000C000C000C16
:103E5400003C0038000000000000000000000000EA
:103E640000008038807F0047000000000000000050
:103E7400000000000000000000000000000000003E
:103E8400000000000000000000000000000000002E
:103E9400000000000000000000000000000000001E
:103EA400000000000000000000000000E003E00348
:103EB400E003E003E003E003E003E003C003C00326
:103EC400C001C001C001C001C00100000000000029
:103ED400E003E003E0030000000000000000000035
:103EE4003C1E3C1E3C1E3C1E3C1E3C1E3C1E000058
:103EF40000000000000000000000000000000000BE
:103F040000000000000000000000000000000000AD
:103F140000000000CE01CE03DE039E039C039C0739
:103F2400FF3FFF7F3807380F780F780F780EFFFFB9
:103F3400FFFFF01EF01CE01CE03CE03DE039000017
:103F44000000000000000000FC03FE0FEE1FE01E56
:103F5400E01EE01EE01EE01FE00FE007F003FC019E
:103F6400FE01FE01FE01FE01FE01FE01FE3DFC3FDD
:103F7400F00FE001E001000000000000033E07F73D
:103F84008FE78EE79EE3BCE3B8E7F8E7F0F7E03F9E
:103F9400C001FF03FF07F307F30FF31EF33CF338ED
:103FA400F3787FF03FE00000000000000000000014
:103FB400E007F80F780F781F781F781F780FF00F3D
:103FC400E00F801FC37FC3FBE7F3F7F1F7F0FFF0C7
:103FD4007FF03EF87F7CFF3FEF1F000000000000F1
:103FE40000000000E003E003E003E003E003C0039B
:103FF400C0010000000000000000000000000000FC
:1040040000000000000000000000000000000000AC
:1040140000000000000000003F007C00F001E0010F
:10402400C003C00780078007800F000F000F000F38
:10403400000F000F000F800F80078007C007C00328
:10404400E001F0017C003F000F000000007E001F33
:10405400C007C003E001F001F000F000F8007800B0
:1040640078007800780078007800F800F000F0001C
:10407400F001E001C003C007001F007E00780000CB
:10408400E003C003C001CE39FF3F7F3F200370032C
:10409400F807780F3C1F38060000000000000000FD
:1040A400000000000000000000000000000000000C
:1040B40000000000000000000000000000000000FC
:1040C400C001C001C001C001C001C001C001FFFFA7
:1040D400FFFFC001C001C001C001C001C001000058
:1040E40000000000000000000000000000000000CC
:1040F40000000000000000000000000000000000BC
:1041040000000000000000000000E003E003E00302
:10411400E003E001E001E001C001800300000000D1
:10412400000000000000000000000000000000008B
:104134000000FE3FFE3F0000000000000000000001
:10414400000000000000000000000000000000006B
:10415400000000000000000000000000000000005B
:10416400000000000000000000000000000000004B
:104174000000E003E003E003E003000000000000AF
:10418400000000000F000F001E001E003C003C0059
:1041940078007800F000F000E001E001C003C00303
:1041A40080078007000F000F001E001E003C003C2B
:1041B4000078007800F00000F007F80F7C1F3E3E06
:1041C4001E3C1F7C1F7C0F780F780F780F780F78B8
:1041D4000F780F781F7C1F7C1E3C3E3E7C1FF80F1F
:1041E400F00700000000000000000000F000F007ED
:1041F400F03FF03FF001F001F001F001F001F001B7
:10420400F001F001F001F001F001F001F001F00122
:10421400F001FF3FFF3F000000000000000000002D
:10422400E00FF83F7C3C3C003E003E003E003C007A
:104234003C007C00F800F001E003C0078007000F99
:10424400001E003E003CFE3FFE3F00000000000058
:1042540000000000F00FF81F7C1C3E003E003E00F2
:104264003C003C00F800F00FF80F7C003E001E00FC
:104274001E001E001E003E007C1CF81FE01F0000F4
:1042840000000000000000007800F800F800F801C9
:10429400F803F807F807780F781E781E783C7878CA
:1042A4007878FFFFFFFF78007800780078007800C6
:1042B400780000000000000000000000FC1FFC1F4C
:1042C400FC1F001E001E001E001E001EE01FF81F23
:1042D400FC007C003E003E001E003E003E003C0010
:1042E4007C1CF81FE01F000000000000000000001C
:1042F400FC01FE078E0F001F001E003E003C003C28
:10430400F83DFC3F3E7F1F7E0F3C0F3C0F3C0F3CB3
:104314000F3E1F1E3E1FFC0FF003000000000000B4
:1043240000000000FF3FFF3FFF3F0F001E001E0084
:104334003C0038007800F000F000E001E001C00328
:10434400C0038007800F800F000F001F001F0000B4
:104354000000000000000000F807FC0F3E1F1E1EB6
:104364001E3E1E3E1E1E3C1FF80FF007F80FFC1EDB
:104374003E3E1F3C1F7C0F7C0F7C1F3C3E3FFC1FBE
:10438400F00700000000000000000000F007F80F34
:104394007C1E3E3C1E3C1F7C1F7C1F7C1F7C1F3CE4
:1043A4003F3EFF1FEF071F001E001E003E003C00A3
:1043B400F838F03FE01F000000000000000000009B
:1043C400000000000000000000000000E003E00323
:1043D400E003E00300000000000000000000000013
:1043E4000000E003E003E003E0030000000000003D
:1043F40000000000000000000000000000000000B9
:10440400E003E003E003E00300000000000000001C
:10441400000000000000E003E003E003E003E0012B
:10442400E001E001C0038003000000000000000080
:104434000000000003000F003F00FC00F003C00F69
:10444400003F00FE003FC00FF003FC003F000F00E0
:104454000300000000000000000000000000000055
:104464000000000000000000000000000000000048
:10447400FFFFFFFF000000000000FFFFFFFF000040
:104484000000000000000000000000000000000028
:1044940000000000000000000000000000E000F840
:1044A400007E801FE007F8017E001F007E00F801F7
:1044B400E007801F007E00F800E00000000000001C
:1044C40000000000F01FFC3F3E381F381F381E005C
:1044D4001E003C007800F000E001C003C003C007E8
:1044E400C007000000000000C007C007C0070000AC
:1044F4000000000000000000F803FE0F1E1F0F3E26
:104504007F3CFF78EF79C773C7F38FF38FF38FF393
:104514009FF39FF3FF73FF7BF779003C1C1FFC0F95
:10452400F80300000000000000000000000000008C
:104534000000E003E003F007F007F007780F780FBE
:104544007C0E3C1E3C1E3E3CFE3FFF3F1F780F7816
:104554000FF007F007F0000000000000000000006A
:10456400000000000000F83FFC3F3E3C1E3C1E3CA7
:104574001E3C3E3C7C3CF03FF83F7E3C1F3C1F3CD5
:104584000F3C0F3C1F3CFE3FF83F000000000000C2
:1045940000000000000000000000FF01FF07871F6B
:1045A400003E003C007C00780078007800780078B9
:1045B400007C007C003E003F831FFF07FF010000DA
:1045C4000000000000000000000000000000F07F78
:1045D400FC7F7E781F781F780F780F780F780F781C
:1045E4000F780F780F780F781F781E787E78F87F11
:1045F400E07F000000000000000000000000000058
:104604000000FF3FFF3F003E003E003E003E003EF4
:10461400003EFE3FFE3F003E003E003E003E003EA8
:10462400003EFF3FFF3F00000000000000000000CC
:10463400000000000000FF1FFF1F001E001E001EE0
:10464400001E001E001EFF1FFF1F001E001E001E76
:10465400001E001E001E001E001E000000000000C0
:1046640000000000000000000000FE03FF0F871F91
:10467400003E007C007C007800F800F87FF87FF8AA
:104684000F780F7C0F7C0F3E8F1FFF0FFE0300007F
:1046940000000000000000000000000000001F7C7B
:1046A4001F7C1F7C1F7C1F7C1F7C1F7C1F7CFF7F4B
:1046B400FF7F1F7C1F7C1F7C1F7C1F7C1F7C1F7C3B
:1046C4001F7C00000000000000000000000000004B
:1046D4000000FF3FFF3FE003E003E003E003E003EB
:1046E400E003E003E003E003E003E003E003E003AE
:1046F400E003FF3FFF3F0000000000000000000057
:10470400000000000000FC1FFC1F7C007C007C00FB
:104714007C007C007C007C007C007C007C007C00B5
:1047240078007800F838F03FC03F00000000000037
:10473400000000000000000000001F3C1E3C3C3C48
:10474400783CF03CE03DE03FC03F803FC03FE03F6D
:10475400F03DF03C783C7C3C3E3C1F3C0F3C000070
:104764000000000000000000000000000000003E07
:10477400003E003E003E003E003E003E003E003E45
:10478400003E003E003E003E003E003E003EFF3F35
:10479400FF3F0000000000000000000000000000D7
:1047A40000001FF81FFC1FFC3FFE3FFE3FFE7FFF83
:1047B40077FF77FFF7F7E7F7E7F3E7F3C7F307F0D8
:1047C40007F007F007F00000000000000000000000
:1047D4000000000000000F7C0F7C0F7E0F7F0F7F16
:1047E4008F7F8F7FCF7FEF7BEF79FF79FF78FF7823
:1047F4007F783F783F781F781F7800000000000022
:1048040000000000000000000000F007FC1F3E3E16
:104814001F7C0F780F780FF80FF80FF80FF80FF8C8
:104824000FF80F780F781F7C3E3EFC1FF007000046
:104834000000000000000000000000000000FC3F39
:10484400FF3F1F3E0F3E0F3E0F3E0F3E1F3E3F3EBB
:10485400FC3FF03F003E003E003E003E003E003E76
:10486400003E000000000000000000000000000006
:104874000000F007FC1F3E3E1F7C0F780F780FF8F6
:104884000FF80FF80FF80FF80FF80F780F781F7C58
:104894003E3EFC1FF8077C003F000F0003000000B1
:1048A400000000000000F03FFC3F7E3C3E3C1E3C0C
:1048B4001E3C3E3C3C3CFC3CF03FE03FF03DF83CC1
:1048C4007C3C3E3C1E3C1F3C0F3C000000000000B2
:1048D40000000000000000000000FC07FE1F0E3E68
:1048E400003C003C003C003EC01FF80FFE037F006C
:1048F4001F000F000F001F203E3CFC3FF01F000074
:104904000000000000000000000000000000FFFFA5
:10491400FFFFE003E003E003E003E003E003E00360
:10492400E003E003E003E003E003E003E003E0036B
:10493400E003000000000000000000000000000090
:1049440000000F7C0F7C0F7C0F7C0F7C0F7C0F7C96
:104954000F7C0F7C0F7C0F7C0F7C0F7C1E3C1E3C5D
:104964003E3EFC1FF00700000000000000000000B5
:1049740000000000000007F007F007F80F780F7C34
:104984001E3C1E3C1E3E3C1E3C1F781F780FF80F39
:10499400F007F007F007E003E00300000000000068
:1049A4000000000000000000000003E003F003F03A
:1049B40007F0E7F3E7F3E7F3E773F77BF77FFF7FAE
:1049C4007F7F7F7F7E7F7E3F3E3E3E3E3E3E0000B9
:1049D400000000000000000000000000000007F8D4
:1049E4000F7C1E3E3E3E3C1FF80FF007E007E0033D
:1049F400E003F007F80F7C0F7C1E3E3C1F780F7815
:104A04000FF00000000000000000000000000000A3
:104A1400000007F807780F7C1E3C1E3E3C1F780FF1
:104A2400F80FF007E003E003E003E003E003E00332
:104A3400E003E003E00300000000000000000000C9
:104A4400000000000000FF7FFF7F0F001F003E00FA
:104A54007C00F800F000E001E003C007800F000FC5
:104A6400001E003E007CFF7FFF7F0000000000006E
:104A740000000000FF078007800780078007800789
:104A840080078007800780078007800780078007EA
:104A940080078007800780078007800780078007DA
:104AA4008007FF07FF07000000780078003C003C07
:104AB400001E001E000F000F80078007C003C00304
:104AC400E001E001F000F000780078003C003C00D8
:104AD4001E001E000F000F0007000000F07FF00012
:104AE400F000F000F000F000F000F000F000F00042
:104AF400F000F000F000F000F000F000F000F00032
:104B0400F000F000F000F000F000F07FF07F000013
:104B1400C000C001C001E003E003F007F00778071C
:104B2400780F380F3C1E3C1E1E3C1E3C0F380F787D
:104B340007780000000000000000000000000000F2
:104B44000000000000000000000000000000000061
:104B54000000000000000000000000000000000051
:104B64000000000000000000000000000000FFFF43
:104B7400FFFF000000000000F00000000000000043
:104B84000000000000000000000000000000000021
:104B94000000000000000000000000000000000011
:104BA4000000000000000000000000000000000001
:104BB4000000000000000000F80FFC3F7C3C3E00B9
:104BC4003E003E00FE07FE1F3E3E3E7C3E783E7C9D
:104BD4007E7CFF3FCF1F00000000000000000000AB
:104BE400003C003C003C003C003C003CF83DFE3FE7
:104BF4003E3F1F3E0F3C0F3C0F3C0F3C0F3C0F3C15
:104C04001F3C1E3C3E3FFC3FF03B00000000000008
:104C14000000000000000000000000000000000090
:104C2400FE03FF0F871F003E003E003C007C007C1B
:104C3400007C003C003E003E871FFF0FFE03000087
:104C440000000000000000001F001F001F001F00E4
:104C54001F001F00FF07FF1F3F3E1F3C1F7C1F7CE0
:104C64001F7C1F781F781F7C1F7C3F3C7F3EFF1FEB
:104C7400DF0F000000000000000000000000000042
:104C84000000000000000000F803FC0F3E1F1E3E61
:104C94001F3C1F7CFF7FFF7F007C007C003C003EAC
:104CA400071FFF0FFE0300000000000000000000CB
:104CB400FF01E103C003C007C007C007FF7FFF7FF8
:104CC400C007C007C007C007C007C007C007C007A8
:104CD400C007C007C007C007C007000000000000ED
:104CE40000000000000000000000000000000000C0
:104CF400EF07FF1F7F3E1F3C1F7C1F7C1F781F7820
:104D04001F781F7C1F7C3F3C7F3EFF1FDF0F1E0070
:104D14001E001E007C38F83F003C003C003C003C78
:104D2400003C003CFC3DFE3F9E3F1F3F1F3E1F3C9E
:104D34001F3C1F3C1F3C1F3C1F3C1F3C1F3C1F3C97
:104D44001F3C00000000000000000000F001F00122
:104D54000000000000000000E07FE07FE001E001CF
:104D6400E001E001E001E001E001E001E001E00137
:104D7400E001E001E001000000000000000000008C
:104D8400F800F8000000000000000000F83FF83FC1
:104D9400F800F800F800F800F800F800F800F8004F
:104DA400F800F800F800F800F800F800F800F00047
:104DB400F071E07F003C003C003C003C003C003CC7
:104DC4001F3C3E3C7C3CF83CF03DE03DC03FC03FD6
:104DD400E03FF03DF83C7C3C3E3C1F3C1F3C000067
:104DE4000000000000000000F07FF001F001F0017D
:104DF400F001F001F001F001F001F001F001F00127
:104E0400F001F001F001F001F001F001F001F00116
:104E1400F00100000000000000000000000000009D
:104E240000000000000000009EF7FFFFFFFFFFFFEF
:104E3400E7FBE7F9C7F1C7F1C7F1C7F1C7F1C7F15C
:104E4400C7F1C7F1C7F10000000000000000000036
:104E5400000000000000000000000000FC3DFE3FD8
:104E64009E3F1F3F1F3E1F3C1F3C1F3C1F3C1F3CDF
:104E74001F3C1F3C1F3C1F3C1F3C00000000000067
:104E8400000000000000000000000000000000001E
:104E9400F007FC1F3E3E1F3C1F7C0F780F780F78F5
:104EA4000F780F781F7C1F3C3E3EFC1FF00700006C
:104EB40000000000000000000000000000000000EE
:104EC40000000000F83DFE3F3E3F1F3E0F3C0F3CFC
:104ED4000F3C0F3C0F3C0F3C1F3C1E3E3E3FFC3F33
:104EE400F83F003C003C003C003C003C000000005B
:104EF4000000000000000000EE07FE1F7E3E1E3C86
:104F04001E7C1E781E781E781E781E781E7C3E7CC1
:104F14007E3EFE1FDE0F1E001E001E001E001E0031
:104F24000000000000000000000000007F1FFF1FC1
:104F3400E71FC71F871F001F001F001F001F001F40
:104F4400001F001F001F001F001F000000000000C2
:104F5400000000000000000000000000000000004D
:104F6400FC07FE1F0E1E003E003E003FE01FFC0734
:104F7400FE003E001E001E003E3CFC3FF01F0000F1
:104F84000000000000000000000000000000800796
:104F940080078007FF7FFF7F8007800780078007E7
:104FA400800780078007800780078007C007FF030A
:104FB400FF010000000000000000000000000000ED
:104FC40000000000000000001E3C1E3C1E3C1E3C75
:104FD4001E3C1E3C1E3C1E3C1E3C1E3C3E3C7E3C7D
:104FE400FE3EFE1FDE0F0000000000000000000077
:104FF40000000000000000000000000007F00F782F
:105004000F781E3C1E3C1E3E3C1E3C1E780F780F43
:10501400F00FF007F007E003E003000000000000D9
:10502400000000000000000000000000000000007C
:1050340003F0E3F1E3F3E7F3F7F3F7F3F77F777FB5
:105044007F7F7F7F7F7F3E3E3E3E3E3E3E3E000072
:10505400000000000000000000000000000000004C
:10506400000000000F7C1E3E3C3E3C1FF80FF00782
:10507400F007E003F007F807F80F7C1E3E3E1F3CE4
:105084001F78000000000000000000000000000085
:10509400000000000000000007F80F780F7C1E3CA1
:1050A4001E3C3C1E3C1E3C1F780FF80FF007F00717
:1050B400E003E003C003C003C0038007800F007F48
:1050C400000000000000000000000000FF3FFF3F60
:1050D4001F003E007C00F800F001E003C007800FD1
:1050E400001F001E003CFF7FFF7F00000000000047
:1050F40000000000FE01E003C003C003C003C003BE
:10510400E001E001E001C001C003803F803FC00333
:10511400C001E001E001E001C003C003C003C0031B
:10512400E003FE017E000000C001C001C001C00117
:10513400C001C001C001C001C001C001C001C00163
:10514400C001C001C001C001C001C001C001C00153
:10515400C001C001C001C001C0010000C03FE003A4
:10516400E001E001E001E001C001C003C003C001AF
:10517400E001FE00FE00E001C001C003C003C00165
:10518400E001E001E001E001E003C03F003F000076
:10519400000000000000000000000000000000000B
:1051A400000000000000073FC77FE773FFF17EF0B7
:1051B40000000000000000000000000000000000EB
:1051C40000000000030406080C1018203000000042
:1051D40000000000000000000102030406070809A3
:0851E400C8AFFF7F01000000CD
:0451EC006101000855
:0451F0003D01000875
:1051F400070A0000B42900080B120000203100083F
:10520400101A00007C3E000868FF1F001000000018
:045214000100000095
:04000005080011A13D
:00000001FF
